:020000040800F2
:1000000000000120693E0008510400085304000864
:1000100055040008570400085904000800000000B7
:100020000000000000000000000000005B04000869
:100030005D040008000000005F040008610400087F
:10004000B13E0008B13E0008B13E0008B13E0008D4
:10005000B13E0008B13E0008B13E0008B13E0008C4
:10006000B13E0008B13E0008B13E0008B13E0008B4
:10007000B13E0008B13E0008B13E0008B13E0008A4
:10008000B13E0008B13E0008B13E0008B13E000894
:1000900069040008B13E0008B13E0008B13E000806
:1000A000B13E0008B13E0008B13E0008B13E000874
:1000B000B13E0008B13E0008B13E0008B13E000864
:1000C000B13E0008B13E0008B13E0008B13E000854
:1000D000B13E0008B13E0008B13E0008B13E000844
:1000E000B13E0008B13E0008B13E0008B13E000834
:1000F000B13E0008B13E0008B13E0008B13E000824
:10010000B13E0008B13E0008B13E0008B13E000813
:10011000B13E0008B13E0008B13E0008B13E000803
:10012000B13E0008B13E0008B13E0008B13E0008F3
:1001300000000000000000000000000000000000BF
:1001400000000000000000000000000000000000AF
:10015000000000000000000000000000000000009F
:10016000000000000000000000000000000000008F
:10017000000000000000000000000000000000007F
:10018000000000000000000000000000000000006F
:10019000000000000000000000000000000000005F
:1001A000000000000000000000000000000000004F
:1001B000000000000000000000000000000000003F
:1001C000000000000000000000000000000000002F
:1001D000000000000000000000000000000000001F
:0401E0005FF8E0F1F3
:1001E4000348044B834202D0034B03B118477047C2
:1001F4009001002090010020000000000548064BFB
:100204001B1AD90F01EBA301491002D0034B03B110
:100214001847704790010020900100200000000062
:1002240010B5064C237843B9FFF7DAFF044B13B13A
:100234000448AFF300800123237010BD9001002017
:10024400000000000C3F000808B5054B1BB1054930
:100254000548AFF30080BDE80840FFF7CFBF00BFFB
:1002640000000000940100200C3F000872B6FEE775
:1002740000B597B0282200210CA803F03DFE00230E
:100284000793089309930A930B930193029303939F
:1002940004930593069301220C924FF480330D933B
:1002A40010920222139214934FF4E01315930CA8A6
:1002B40002F0B8FAC0B90F23079302210891002372
:1002C40009934FF480620A920B9307A802F0EAFCA8
:1002D40060B9102301930023069301A802F098FD4E
:1002E40030B917B05DF804FBFFF7C0FFFFF7BEFF9E
:1002F400FFF7BCFF70B58AB002F05AFAFFF7B8FFF7
:1003040003F08AFD00F066F800F0D6F82D4B07AC38
:1003140093E8070003C4227004AC03C4227001AC48
:100324000C3393E8070003C422701021264802F01E
:1003340017FFF8B902238DF8063001250821224859
:1003440002F00EFFD0B909238DF81F3001240121DA
:100354001E4802F005FFA8B108238DF820300124BF
:10036400A5B9E4B9002CE0D1002DDED10F2003F0B3
:100374006FFDDAE700258DF80650DFE700248DF8DD
:100384001F40E4E700238DF82030E9E7092201A9A2
:100394000F4803F00BFD0F2003F05AFDE1E70C4E6C
:1003A400092207A9304603F001FD0F2003F050FD98
:1003B400092204A9304603F0F9FC0F2003F048FD9C
:1003C400D0E700BF243F00080018014000080140A6
:1003D400AC01002030B589B000240494059406943F
:1003E4000794174B9A6942F040029A619A6902F0A5
:1003F40040020192019A9A6942F010029A619A6944
:1004040002F010020292029A9A6942F004029A617E
:100414009B6903F004030393039B182304930125AE
:10042400069504A9074802F07FFD0495059402236C
:10043400069304A9044802F077FD09B030BD00BF5B
:10044400001002400018014000080140FEE7FEE7EA
:10045400FEE7FEE7FEE770477047704708B502F015
:10046400B9F908BD08B5024800F063FF08BD00BF34
:100474008406002082B00E4B9A6942F001029A6110
:100484009A6902F001020092009ADA6942F08052FD
:10049400DA61DB6903F080530193019B054A5368D9
:1004A40023F0E06343F00073536002B0704700BF71
:1004B400001002400000014008B500220B490C481E
:1004C40002F0DFFE48B90B49094802F0F1FE38B9E1
:1004D400074802F0F4FE30B908BDFFF7C7FEF2E7A3
:1004E400FFF7C4FEF4E7FFF7C1FEF5E73400002090
:1004F400AC0100205801002012230B8000487047F3
:100504002000002004230B80004870471C000020BA
:10051400002393421ED200B510E00CF1370C01F811
:1005240013C000014FEA430C0CF1010C4FF0000E14
:1005340001F80CE00133DBB2934209D24FEA107C9C
:10054400B0F1204FE9D20CF1300C01F813C0E8E708
:100554005DF804FB7047000038B50B4BD3F8E8078F
:10056400D3F8EC47D3F8F037C01800D138BD074DA5
:1005740008222946FFF7CCFF042205F1100120468A
:10058400FFF7C6FFF2E700BF00F0FF1F02000020E4
:1005940008B51A230B80FFF7DFFF014808BD00BF31
:1005A4000000002008B50A4628B90549054803F0AB
:1005B400DEFA034808BD0249024803F0D8FAF8E716
:1005C400700400203C3F000810B50A46034C214645
:1005D400034803F0CCFA204610BD00BF700400208D
:1005E400543F000808B50A4628B90549054803F0F0
:1005F400BEFA034808BD0249024803F0B8FAF8E716
:1006040070040020683F000808B50A4628B9054967
:10061400054803F0ACFA034808BD0249024803F058
:10062400A6FAF8E770040020743F0008022805D8F1
:10063400DFE800F005040200012070470220704743
:1006440002680E4B9A4200D0704700B583B003F5A0
:10065400DA33DA6942F40002DA61DB6903F4000395
:100664000193019B00221146142002F0C7FD1420BF
:1006740002F0D4FD03B05DF804FB00BF005C004051
:1006840008B500F52C71D0F8E80202F030FE08BD80
:1006940008B501EB810300EBC303D3F87C21D0F848
:1006A400E80202F051FE08BD08B501EB810300EB3E
:1006B400C303DA6BD0F8E80202F08CFE08BD08B57B
:1006C400D0F8E80202F02DFF08BD10B50446836897
:1006D400022B09D10121D4F8E80202F00BFFD4F86F
:1006E400E80202F0DFFE10BDFFF7C0FDF2E70000F4
:1006F40010B50446D0F8E80202F0FFFEA36923B166
:10070400024A136943F00603136110BD00ED00E0D3
:1007140008B5D0F8E80202F0F9FE08BD10B50446A9
:100724001648C0F8E842C4F8C002154B0360082319
:1007340043600223836000238361C361036200F08A
:100744000FF9B8B9182300221146D4F8C00201F0F9
:100754000FF8582300228021D4F8C00201F008F8D1
:100764004FF4807300228121D4F8C00201F000F814
:10077400002010BDFFF77AFDE4E700BF84060020E7
:10078400005C004008B5D0F8C00200F075F9FFF72E
:100794004DFF08BD08B594461A466346D0F8C0021A
:1007A40000F0B1FEFFF742FF08BD08B5D0F8C00263
:1007B40000F0EBFEFFF73AFF08BD08B5D0F8C00221
:1007C40000F05FFFFFF732FF08BD08B5D0F8C002A4
:1007D40000F093FFFFF72AFF08BDD0F8C03211F0F4
:1007E400800F08D101F07F0101EB810103EBC1030C
:1007F40093F86A01704701F07F01013101EB810137
:1008040003EBC1039878704708B5D0F8C00200F034
:100814007CFDFFF70BFF08BD08B5D0F8C00200F05F
:1008240008FFFFF703FF08BD08B5D0F8C00200F0C9
:10083400DEFEFFF7FBFE08BD00487047700600208F
:100844007047704738B512F4804F44D00468B4F848
:1008540050309BB291F800C003EBCC03023304EB9D
:100864004304B4F80044C4F309048B69A34228D3B5
:100874001B1B8B618B697BB9056835F82C309BB2E7
:1008840023F4804323F0700383F4005343F40043C0
:1008940043F0800325F82C3012F0400F0ED002688C
:1008A4000D7832F825309BB223F4E04323F0700333
:1008B40043F4004343F0C00322F8253024B9204612
:1008C40038BD00238B61D5E723460A89496900684E
:1008D40001F030FFF3E70468B4F850309BB291F8AC
:1008E40000C003EBCC03063304EB4304B4F8004428
:1008F400C4F309048B69A3422FD31B1B8B618B693F
:100904007BB9056835F82C309BB223F4804323F07F
:10091400700383F4005343F4004343F0800325F849
:100924002C3012F0400F0FD1026891F800C032F859
:100934002C309BB223F4E04323F0700343F40043D0
:1009440043F0C00322F82C30002CB8D023464A8947
:100954004969006801F0EEFEB1E700238B61CEE740
:1009640070B586B0002800F08580044690F8A9325E
:10097400EBB1032384F8A932206800F025FF254653
:1009840055F8106BEC460FCDACE80F002B68CCF893
:100994000030231D0ECB304600F006FF054658B14B
:1009A400022384F8A9320125284606B070BD80F8D8
:1009B400A832FFF745FEDCE70021206800F00EFFB7
:1009C4002B461AE05A1C02EB820104EBC101012000
:1009D400487002EB820104F8313003EB830104EB2D
:1009E400C101CB8602EB820C04EBCC0C00208CF80A
:1009F40003008863C8630864D3B261688B42E1D39F
:100A040016E005EB850304EBC303002283F8692198
:100A140083F8685183F86B21C3F87821C3F87C21EB
:100A240005EB850304EBC303C3F880210135EDB264
:100A3400A942E6D8254655F8106BEC460FCDACE834
:100A44000F002B68CCF80030231D0ECB304600F08D
:100A5400C7FE054620B1022384F8A9320125A3E785
:100A6400002384F82430012384F8A932206801F09B
:100A7400EDF999E7012597E738B590F8A832012BED
:100A840011D00446012580F8A852006800F093FEB6
:100A940029462046FFF7D5FE206801F0D5F900204D
:100AA40084F8A80238BD0220FCE770B505460C4660
:100AB400164612F0400F00F00D810268B2F8503073
:100AC4009BB2097803EBC103023302EB4302B2F891
:100AD4000024C2F30902A369934252D99B1AA36169
:100AE400A369002B6AD16378002B4DD12B68B3F82E
:100AF400502092B2134403EB0113B3F8042492B2CE
:100B040022F4F84292B2A3F80424B3F804246FEA5E
:100B140042426FEA524292B2A3F804242B686278EC
:100B2400002A3ED1B3F8502092B21344227803EB4A
:100B34000213B3F80C2492B222F4F84292B2A3F84E
:100B44000C24B3F80C246FEA42426FEA524292B288
:100B5400A3F80C2421782846FFF7A6FD16F4804F4D
:100B640041D02A68217832F821309BB223F4E04343
:100B740023F0700343F4404343F0800322F8213010
:100B840031E00023A361ABE7012BC7D12B68B3F895
:100B9400502092B2134403EB01130022A3F804245F
:100BA400BCE7012AD6D1B3F8502092B2134422787C
:100BB40003EB02130022A3F80C24CBE716F4804FB6
:100BC4000DD0286830F821309BB223F4E04323F0A1
:100BD400700343F4404343F0800320F8213094F839
:100BE4002430012B12D02A68217832F821309BB2AC
:100BF40023F4E04323F0400383F0300343F4004341
:100C040043F0800322F82130002070BD636913444F
:100C14006361E3691344E361216A236999421FD341
:100C2400C91A21626278002A3FD12A68B2F85010AA
:100C340089B20A44217802EB0112EBB9B2F8041428
:100C440089B221F4F84189B2A2F80414B2F8041468
:100C54006FEA41416FEA514189B2A2F8041426E0D7
:100C640021B9002384F824301346DBE7002384F8F9
:100C7400243023620B46D5E73E2B09D8590813F0DC
:100C8400010F00D00131890289B2A2F804140EE0E8
:100C9400590913F01F0F00D101396FEAC1616FEADE
:100CA400514189B2A2F8041401E0012A06D09BB292
:100CB40022896169286801F0D1F894E72A68B2F8BA
:100CC400501089B20A44217802EB011299B2A2F8B9
:100CD4000414ECE70268B2F850309BB2097803EBD5
:100CE400C103063302EB4302B2F80024C2F3090243
:100CF400A369934253D39B1AA361A369002B6BD1BD
:100D04006378002B4ED12B68B3F8502092B2134471
:100D140003EB0113B3F8042492B222F4F84292B222
:100D2400A3F80424B3F804246FEA42426FEA52425F
:100D340092B2A3F804242B686278002A3FD1B3F856
:100D4400502092B21344227803EB0213B3F80C241C
:100D540092B222F4F84292B2A3F80C24B3F80C2411
:100D64006FEA42426FEA524292B2A3F80C2421780D
:100D74002846FFF799FC16F4804F7FF434AF2A68B5
:100D8400217832F821309BB223F4E04323F070033E
:100D940043F4404343F0800322F8213023E7002347
:100DA400A361AAE7012BC6D12B68B3F8502092B2F5
:100DB400134403EB01130022A3F80424BBE7012A24
:100DC400D5D1B3F8502092B21344227803EB021326
:100DD4000022A3F80C24CAE716F4804F0DD128682A
:100DE40030F821309BB223F4E04323F0700343F442
:100DF400404343F0800320F8213094F82430012B41
:100E04007FF4F1AE636913446361E3691344E361FE
:100E1400216A236999421FD3C91A21622A68617819
:100E240000293ED1B2F8501089B20A44217802EB6D
:100E34000112EBB9B2F80C1489B221F4F84189B269
:100E4400A2F80C14B2F80C146FEA41416FEA514154
:100E540089B2A2F80C1426E021B9002384F82430C6
:100E64001346DBE70023236284F824300B46D5E7DE
:100E74003E2B09D8590813F0010F00D00131890223
:100E840089B2A2F80C140EE0590913F01F0F00D117
:100E940001396FEAC1616FEA514189B2A2F80C14B9
:100EA40001E0012906D09BB262896169286800F0DB
:100EB400D5FF98E6B2F8501089B20A44217802EBC3
:100EC400011299B2A2F80C14EDE72DE9F0410546A0
:100ED4002868B0F8443013F4004F00F01382B0F8DF
:100EE4004440A3B214F00F0440F0D88013F0100F64
:100EF40061D003889AB213F4006F40F0938012F427
:100F0400004FE5D0038823F070031B051B0D43F04D
:100F1400800303802868B0F850309BB295F86821AC
:100F240003EBC203063300EB4303B3F80034C3F30B
:100F34000903C5F884318BB1D5F87C1171B1B5F8CA
:100F44006E2101F0F7FBD5F87C31D5F884211344E8
:100F5400C5F87C3100212846FFF79AFB2B681A88D4
:100F640012F4006FB4D1B3F8502092B21344D5F800
:100F74007821002A79D1B3F80C2492B222F4F842F1
:100F840092B2A3F80C24B3F80C246FEA42426FEA3D
:100F9400524292B2A3F80C242A6813889BB223F419
:100FA400804323F0700383F4405343F4004343F03D
:100FB400800313808CE703889BB223F4E14323F07E
:100FC40070036FEA43436FEA53439BB203802A687A
:100FD400B2F850309BB295F8281003EBC1030233EA
:100FE40002EB4302B2F80034C3F309036B64EA6B07
:100FF4001A44EA6300212846FFF756FB95F824308B
:10100400002B3FF465AF2B6C002B7FF461AF95F898
:1010140024302A6843F08003A2F84C30002385F87A
:10102400243055E7B0F850309BB295F8682103EBB3
:10103400C203063300EB4303B3F80034C3F30903DC
:10104400C5F88431B5F86E2105F52C7101F072FBF9
:101054002A68138823F070031B051B0D43F08003DB
:1010640013802846FFF70CFB32E73E2A09D85108C3
:1010740012F0010F00D001318A0292B2A3F80C24BD
:101084008AE7510912F01F0F00D101396FEAC162DA
:101094006FEA524292B2A3F80C247DE730F8243070
:1010A4009EB213F4004F4FD116F0800F3FF410AFEF
:1010B400621C02EB820105EBC101286830F8243080
:1010C4009BB223F4E14323F070036FEA43436FEAD6
:1010D40053439BB220F82430CB78032B07D033B191
:1010E400022B40F00A8116F4807F40F006812868C4
:1010F400B0F850309BB2621C02EB820215F83260E9
:1011040003EBC603023300EB4303B3F80034C3F329
:10111400090304EB840205EBC202126C9A4240F20A
:10112400D48004EB840705EBC707D21A3A6404EBB6
:10113400840205EBC202126C002A40F0CD803146D5
:101144002846FFF7B1FAC3E630F8243023F07003E1
:101154001B051B0D43F0800320F8243004EB8401AD
:10116400C90001F5B47105EB010804EB840305EB38
:10117400C30393F87431002B42D12868B0F850307F
:101184009BB204EB840205EBC20292F8682103EBE4
:10119400C203063300EB4303B3F80074C7F3090733
:1011A40017BB04EB840305EBC303D3F884213A444F
:1011B400C3F88421D3F87C213A44C3F87C21D3F8C2
:1011C40080313BB104EB840305EBC303D3F87831DE
:1011D4009F4275D204EB840305EBC30393F86811B3
:1011E4002846FFF755FA5FE704EB840105EBC101DC
:1011F4003B46B1F86E21D1F87C1101F09BFAD0E79F
:1012040004EB840305EBC30393F86B31022B35D055
:10121400296804EB840205EBC20292F8680131F8F4
:1012240020309BB223F4E04323F0700343F40043E3
:1012340043F0C00321F82030286892F8682130F880
:10124400223013F4804F20D0B0F850309BB203EB1F
:10125400C203023300EB4303B3F80074C7F3090776
:10126400002F9ED004EB840105EBC1013B46B1F88D
:101274007021D1F87C1101F05DFA92E732464146C3
:101284002846FFF7DFFA07468BE7B0F850309BB2E9
:1012940003EBC203063300EB4303B3F80074C7F354
:1012A4000907002F3FF47DAF04EB840105EBC10176
:1012B4003B46B1F87221D1F87C1101F03BFA70E79A
:1012C4004146286800F0DDFDEEE604EB840205EB00
:1012D400C202002717642AE704EB840205EBC2026A
:1012E400D66B1E44D663526C04EB840405EBC40431
:1012F4001344636400F0C5FDEAE532462846FFF76F
:10130400D4FBE5E50020BDE8F08190F8A832012B7C
:101314000DD010B50446012380F8A83280F82410BB
:10132400006800F08BFD002084F8A80210BD0220A4
:10133400704710B584B00446006800F089FD10F4CD
:10134400004F47D1206800F083FD10F4806F45D131
:10135400206800F07DFD10F4804F08D02268B2F8B8
:1013640044309BB223F480439BB2A2F844302068FB
:1013740000F06EFD10F4005F08D02268B2F844302B
:101384009BB223F400539BB2A2F84430206800F0CF
:101394005FFD10F4805F32D1206800F059FD10F435
:1013A400006F78D1206800F053FD10F4007F40F006
:1013B4009D80206800F04CFD10F4807F08D02268E6
:1013C400B2F844309BB223F480739BB2A2F8443049
:1013D40004B010BD2046FFF778FDB3E72268B2F8E9
:1013E40044309BB223F480639BB2A2F8443020467D
:1013F400FFF76BF900212046FFF787FFA8E7226873
:10140400B2F840309BB223F004039BB2A2F8403000
:101414002268B2F840309BB223F008039BB2A2F8D2
:1014240040302046FFF774F92268B2F844309BB28A
:1014340023F480539BB2A2F84430ADE7226832F81B
:10144400231004AA02EB430222F8101C0133DBB27E
:10145400072BF3D92268B2F840309BB243F0010362
:10146400A2F840302268B2F840309BB223F0010366
:101474009BB2A2F840302368B3F8442012F4806F82
:10148400F9D0B3F8442092B222F4806292B2A3F865
:10149400442000230BE00023DAE7226804A901EBCF
:1014A400430131F8101C22F823100133DBB2072B5F
:1014B400F3D92268B2F840309BB243F00803A2F893
:1014C40040302268B2F844309BB223F400639BB2EC
:1014D400A2F844302268B2F840309BB243F00403CF
:1014E400A2F840302046FFF703F95BE72268B2F820
:1014F40044309BB223F400739BB2A2F844302046DC
:10150400FFF7DDF855E710B504468C4611F0800F5F
:101514002AD101F0070000EB8001C90001F5B47E77
:1015240004EB0E0100EB800004EBC0004FF0000E52
:1015340080F869E10CF0070C81F800C00A61CB70F7
:101544004A780AB1A1F80EC0022B19D094F8A83237
:10155400012B18D0012384F8A832206800F051F937
:10156400002084F8A80210BD01F00700013000EB50
:10157400800104EBC1014FF0010E81F801E0D9E7CD
:1015840000230B71E2E70220EDE710B504460B4699
:1015940011F0800F1FD101F0070202EB8201C90094
:1015A40001F5B471014402EB820200EBC202002097
:1015B40082F8690103F007030B7094F8A832012B39
:1015C40013D0012384F8A832206800F0D6FA002052
:1015D40084F8A80210BD01F00702013202EB820177
:1015E40000EBC10101204870E4E70220F2E710B5E6
:1015F40001F0070404EB8401C90001F5B47101444E
:1016040004EB840C00EBCC0CCCF87C21CCF88031BE
:101614000023CCF884318CF869318CF8684124B902
:10162400006800F02EFC002010BD006800F029FCCA
:10163400F9E710B501F0070404F1010C0CEB8C017F
:1016440000EBC10104EB840E00EBCE0ECEF83C207F
:10165400CEF8403001228EF84C20CEF848300023DA
:10166400CEF844304A700CEB8C0C00F83C4024B9A2
:10167400006800F006FC002010BD006800F001FCCA
:10168400F9E738B501F007054268954231D80446B8
:101694000B4611F0800F1ED101EB8101C90001F549
:1016A400B471014403EB830300EBC303002283F80A
:1016B400692101238B700D7094F8A832012B1AD084
:1016C400012384F8A832206800F042FB5DB10020B9
:1016D40084F8A80238BD6B1C03EB830100EBC10145
:1016E40001224A70E5E704F52C71206800F0B4FB90
:1016F400EDE70120EEE70220ECE70B4601F00F01D5
:101704004268914230D810B5044613F0800F21D1BD
:1017140003F0070202EB8201C90001F5B471014430
:1017240002EB820200EBC202002082F8690100226F
:101734008A7003F007030B7094F8A832012B15D0BC
:10174400012384F8A832206800F027FB002084F8E5
:10175400A80210BD03F00702013202EB820100EB84
:10176400C10101204870E2E7012070470220F0E740
:1017740011F0800F0BD001F00701013101EB810161
:1017840000EBC10052B90273C3800020704701EB23
:101794008101C90001F5B4710844F3E70122027321
:1017A40003811B0C4381F0E784B001A880E80E009C
:1017B400002004B0704703460020A3F844004FF40F
:1017C4003F42A3F840207047B0F8403023F47C53E4
:1017D4005B045B0CA0F84030002070470020704789
:1017E40084B0844601A880E80E000123ACF84030A0
:1017F4000020ACF84000ACF84400ACF8500004B051
:10180400704710B5034691F800C030F82C2092B20E
:1018140022F4EC4222F0700292B2C878032861D814
:10182400DFE800F0555C0258002048F2800E42EADE
:101834000E0223F82C2091F800C033F82C2092B229
:1018440022F4E04222F0700242EA0C0242EA0E0262
:1018540023F82C200A7B002A40F0C4804A78002A0E
:1018640051D0B3F8502092B21A440C7802EB04120F
:10187400B1F806C04FEA5C0C4FEA4C0CA2F800C465
:101884000C7833F8242012F0400F0CD033F82420C5
:1018940092B222F4E04222F0700242F4004242F09A
:1018A400C00223F82420CA78012A1DD0097833F80D
:1018B400212092B222F4E04222F0400282F020027F
:1018C40042F4004242F0800223F821206AE042F40C
:1018D4000072AAE742F4C0620020A6E742F48062E4
:1018E4000020A2E70120A0E7097833F8212092B272
:1018F40022F4E04222F0400242F4004242F080022C
:1019040023F821204EE0B3F8502092B21A440C7808
:1019140002EB0412B1F806C04FEA5C0C4FEA4C0C1F
:10192400A2F808C4B3F8502092B21A440C7802EB1F
:1019340004120C69BCBBB2F80CC41FFA8CFC2CF466
:10194400F84C1FFA8CFCA2F80CC4B2F80CC46FEA71
:101954004C4C6FEA5C4C1FFA8CFCA2F80CC40C785B
:1019640033F8242012F4804F0CD033F8242092B2A0
:1019740022F4E04222F0700242F4404242F080023B
:1019840023F82420097833F8212092B222F48042EB
:1019940022F0700282F4405242F4004242F080028B
:1019A40023F8212010BD3E2C0DD84FEA540C14F01E
:1019B400010F01D00CF1010C4FEA8C2C1FFA8CFCA6
:1019C400A2F80CC4CBE74FEA541C14F01F0F01D14A
:1019D4000CF1FF3C6FEACC646FEA5444A4B2A2F861
:1019E4000C44BCE791F800C033F82C2092B222F4E6
:1019F400E04222F0700242F4014242F0800223F8F5
:101A04002C20B3F8502092B21A4491F800C002EB93
:101A14000C12B1F808C04FEA5C0C4FEA4C0CA2F867
:101A240000C4B3F8502092B21A4491F800C002EBFB
:101A34000C12B1F80AC04FEA5C0C4FEA4C0CA2F845
:101A440008C44A78002A41D10C7833F8242012F4CF
:101A5400804F0CD033F8242092B222F4E04222F0DA
:101A6400700242F4404242F0800223F824200C78B1
:101A740033F8242012F0400F0CD033F8242092B213
:101A840022F4E04222F0700242F4004242F0C0022A
:101A940023F8242091F800C033F82C2092B222F4C9
:101AA400804222F0700282F4405248F280042243C1
:101AB40023F82C20097833F8212092B222F4E04252
:101AC40022F04002224323F821206BE70C7833F8FC
:101AD400242012F4804F0CD033F8242092B222F444
:101AE400E04222F0700242F4404242F0800223F8C5
:101AF40024200C7833F8242012F0400F0CD033F853
:101B0400242092B222F4E04222F0700242F4004215
:101B140042F0C00223F82420CA78012A1ED00C788F
:101B240033F8242092B222F4E04222F0400282F000
:101B3400200242F4004242F0800223F82420097873
:101B440033F8212092B222F4804222F0700242F44F
:101B5400004242F0800223F8212023E70C7833F876
:101B6400242092B222F4E04222F0400242F40042E5
:101B740042F0800223F82420E1E70B7B002B46D1BE
:101B84004B7813B30A7830F8223013F0400F0CD09E
:101B940030F822309BB223F4E04323F0700343F483
:101BA400004343F0C00320F822300A7830F8223092
:101BB4009BB223F4E04323F0400343F4004343F097
:101BC400800320F82230002070470A7830F8223051
:101BD40013F4804F0CD030F822309BB223F4E0434E
:101BE40023F0700343F4404343F0800320F8223091
:101BF4000A7830F822309BB223F4804323F0700338
:101C040043F4004343F0800320F82230DBE74B78B1
:101C1400002B4ED10A7830F8223013F4804F0CD0C8
:101C240030F822309BB223F4E04323F0700343F4F2
:101C3400404343F0800320F822300A7830F8223001
:101C440013F0400F0CD030F822309BB223F4E04361
:101C540023F0700343F4004343F0C00320F8223020
:101C64000A7830F822309BB223F4E04323F0700367
:101C740043F4004343F0C00320F822300A7830F8DC
:101C840022309BB223F4804323F0700348F2800C8B
:101C940043EA0C0320F822300A7830F822309BB251
:101CA40023F4E04323F0400343EA0C0320F82230FA
:101CB40089E70A7830F8223013F4804F0CD030F8DA
:101CC40022309BB223F4E04323F0700343F44043F7
:101CD40043F0800320F822300A7830F8223013F0E1
:101CE400400F0CD030F822309BB223F4E04323F0B1
:101CF400700343F4004343F0C00320F822300A7811
:101D040030F822309BB223F4E04323F0700343F411
:101D1400404343F0800320F822300A7830F8223020
:101D24009BB223F4E04323F0400348F2800C43EADF
:101D34000C0320F822300A7830F822309BB223F4C6
:101D4400804323F0700343EA0C0320F822303AE77F
:101D54004B788BB10A7830F822309BB223F4E043FD
:101D640023F0400383F0100343F4004343F0800363
:101D740020F82230002070470A7830F822309BB2D5
:101D840023F4804323F0700383F4805343F400432B
:101D940043F0800320F82230ECE70B7B002B4BD17F
:101DA4004B7833B30A7830F8223013F0400F0CD05C
:101DB40030F822309BB223F4E04323F0700343F461
:101DC400004343F0C00320F82230CB78012B33D0FA
:101DD4000A7830F822309BB223F4E04323F0400326
:101DE40083F0200343F4004343F0800320F82230BF
:101DF40022E00A7830F8223013F4804F0CD030F807
:101E040022309BB223F4E04323F0700343F44043B5
:101E140043F0800320F822300A7830F822309BB255
:101E240023F4804323F0700383F4405343F40043CA
:101E340043F0800320F822300020704711B980233A
:101E4400A0F84C30002070470020704700207047F5
:101E5400B0F8440080B270470020704701335B083B
:101E640000EB420000F5806008E00A7891F801C0B8
:101E740042EA0C2220F8042B0231013B002BF4D15E
:101E8400704770B505460C464B78012B37D00A7B5A
:101E9400002A40F026838B690A69934240F2048346
:101EA4009B1A8B61B5F850309BB22B44217803EB1D
:101EB4000113002A40F0FC82B3F80C2492B222F4FD
:101EC400F84292B2A3F80C24B3F80C246FEA42420D
:101ED4006FEA524292B2A3F80C24227835F82230E9
:101EE4009BB223F4804323F0700383F4405343F400
:101EF400004343F0800325F82230002070BD8E6932
:101F04000A69964200D91646237B002B39D0E37820
:101F1400022B58D0227835F822309BB223F4E043C8
:101F240023F0700343F4014343F0800325F8223087
:101F3400236A9B1B2362237835F8232012F0400F79
:101F440000F026826278002A40F0CA81B5F8502059
:101F540092B22A4402EB0313002E40F0A881B3F896
:101F64000C2492B222F4F84292B2A3F80C24B3F8EF
:101F74000C246FEA42426FEA524292B2A3F80C2454
:101F8400B0E1B6B23346E28861692846FFF766FFDE
:101F9400B5F850309BB22B44227803EB0213A3F81C
:101FA4000464227835F822309BB223F4E04323F012
:101FB400400383F0300343F4004343F0800325F8E7
:101FC400223000209AE7236A9A4280F052812278D4
:101FD40035F822309BB223F4E04323F0700343F43A
:101FE400014343F0800325F82230236A9B1B2362BC
:101FF400237835F8232012F0400F00F09D8062789A
:102004008ABBB5F8502092B22A4402EB03138EB96E
:10201400B3F80C2492B222F4F84292B2A3F80C243E
:10202400B3F80C246FEA42426FEA524292B2A3F828
:102034000C241AE03E2E09D8720816F0010F00D0C5
:102044000132920292B2A3F80C240EE0720916F047
:102054001F0F00D1013A6FEAC2626FEA524292B294
:10206400A3F80C2401E0012A2BD0B3B26289616980
:102074002846FFF7F3FE636933446361236A2269E8
:10208400934228D99B1B23626378002B40D1B5F877
:1020940050309BB22B44227803EB0213FEB9B3F801
:1020A400042492B222F4F84292B2A3F80424B3F8BE
:1020B40004246FEA42426FEA524292B2A3F8042423
:1020C40028E0B5F8502092B22A4402EB0313B2B2CE
:1020D400A3F80C24C9E7002222621E46D4E73E2E50
:1020E40009D8720816F0010F00D00132920292B2A0
:1020F400A3F804240EE0720916F01F0F00D1013A70
:102104006FEAC2626FEA524292B2A3F8042401E079
:10211400012B06D0B3B2228961692846FFF79EFEDF
:102124003FE7B5F850309BB22B44227803EB0213FF
:10213400B2B2A3F80424EDE762788ABBB5F8502064
:1021440092B22A4402EB03138EB9B3F8042492B278
:1021540022F4F84292B2A3F80424B3F804246FEAF8
:1021640042426FEA524292B2A3F804241AE03E2E8D
:1021740009D8720816F0010F00D00132920292B20F
:10218400A3F804240EE0720916F01F0F00D1013ADF
:102194006FEAC2626FEA524292B2A3F8042401E0E9
:1021A400012A2BD0B3B2228961692846FFF756FE73
:1021B400636933446361236A2269934228D99B1B70
:1021C40023626378002B40D1B5F850309BB22B4486
:1021D400227803EB0213FEB9B3F80C2492B222F472
:1021E400F84292B2A3F80C24B3F80C246FEA4242EA
:1021F4006FEA524292B2A3F80C2428E0B5F85020BA
:1022040092B22A4402EB0313B2B2A3F80424C9E73E
:10221400002222621E46D4E73E2E09D8720816F028
:10222400010F00D00132920292B2A3F80C240EE006
:10223400720916F01F0F00D1013A6FEAC2626FEA09
:10224400524292B2A3F80C2401E0012B06D0B3B29F
:10225400628961692846FFF701FEA2E6B5F85030AD
:102264009BB22B44227803EB0213B2B2A3F80C24E2
:10227400EDE7217835F8212092B222F4E24222F0EF
:10228400700242F4004242F0800225F82120B5F8A1
:10229400502092B22A44217802EB01129BB2A2F898
:1022A4000434228961692846FFF7D8FD79E63E2E79
:1022B40009D8720816F0010F00D00132920292B2CE
:1022C400A3F80C240EE0720916F01F0F00D1013A96
:1022D4006FEAC2626FEA524292B2A3F80C2401E0A0
:1022E400012A26D0B3B2628961692846FFF7B6FD98
:1022F400636933446361236A2269934223D99B1B34
:102304002362002E3FF44DAE63786BBBB5F85030BA
:102314009BB22B44227803EB02133E2E17D872088B
:1023240016F0010F00D00132920292B2A3F80424F5
:102334001CE0B5F8502092B22A4402EB0313B2B267
:10234400A3F80C24CEE7002222621E46D9E77209C4
:1023540016F01F0F00D1013A6FEAC2626FEA5242CF
:1023640092B2A3F8042401E0012B06D0B3B222896F
:1023740061692846FFF772FD13E6B5F850309BB249
:102384002B44227803EB0213B2B2A3F80424EDE742
:1023940062788ABBB5F8502092B22A4402EB031348
:1023A4008EB9B3F8042492B222F4F84292B2A3F89C
:1023B4000424B3F804246FEA42426FEA524292B210
:1023C400A3F804241AE03E2E09D8720816F0010F6F
:1023D40000D00132920292B2A3F804240EE07209F2
:1023E40016F01F0F00D1013A6FEAC2626FEA52423F
:1023F40092B2A3F8042401E0012A26D0B3B22289C0
:1024040061692846FFF72AFD636933446361236ADF
:102414002269934223D99B1B2362002E3FF4C1AD52
:1024240063786BBBB5F850309BB22B44227803EB36
:1024340002133E2E17D8720816F0010F00D0013295
:10244400920292B2A3F80C241CE0B5F8502092B288
:102454002A4402EB0313B2B2A3F80424CEE7002209
:1024640022621E46D9E7720916F01F0F00D1013A05
:102474006FEAC2626FEA524292B2A3F80C2401E0FE
:10248400012B06D0B3B2628961692846FFF7E6FCE6
:1024940087E5B5F850309BB22B44227803EB021346
:1024A400B2B2A3F80C24EDE700228A611A46F9E4DB
:1024B4003E2A09D8510812F0010F00D001318902D7
:1024C40089B2A3F80C1408E5510912F01F0F00D1CA
:1024D40001396FEAC1616FEA514189B2A3F80C1462
:1024E400FBE4CA78022A45D0012A40F02081896998
:1024F4002269914240F2D480891AA161D3B9B5F816
:1025040050309BB22B44217803EB0113002A40F096
:10251400CB80B3F8041489B221F4F84189B2A3F84A
:102524000414B3F804146FEA41416FEA514189B2CB
:10253400A3F804146378002B40F0EA80B5F8503017
:102544009BB22B44217803EB0113002A40F0C58091
:10255400B3F80C2492B222F4F84292B2A3F80C24F9
:10256400B3F80C246FEA42426FEA524292B2A3F8E3
:102574000C24B2E4CBB9B0F850309BB203440A78CF
:1025840003EB02130A6972BBB3F8042492B222F477
:10259400F84292B2A3F80424B3F804246FEA424246
:1025A4006FEA524292B2A3F804246378002B4CD110
:1025B400B5F850309BB22B44227803EB0213226906
:1025C40052BBB3F80C2492B222F4F84292B2A3F8AC
:1025D4000C24B3F80C246FEA42426FEA524292B2DE
:1025E400A3F80C2433E03E2A09D8510812F0010F55
:1025F40000D001318A0292B2A3F80424D5E751092C
:1026040012F01F0F00D101396FEAC1626FEA524222
:1026140092B2A3F80424C8E73E2A09D8510812F05C
:10262400010F00D001318A0292B2A3F80C240EE00B
:10263400510912F01F0F00D101396FEAC1626FEA2C
:10264400524292B2A3F80C2401E0012B1DD0E3699D
:10265400002B3FF442AC227835F8221044F24003B8
:1026640003EA01008B4302D000287FF436AC35F82E
:1026740022309BB223F4E04323F0700343F400437D
:1026840043F0C00325F8223027E4B5F850309BB25C
:102694002B44227803EB0213228AA3F80C24D6E7F6
:1026A4000022A2610A4629E73E2A09D8510812F0FD
:1026B400010F00D00131890289B2A3F8041439E76B
:1026C400510912F01F0F00D101396FEAC1616FEA9D
:1026D400514189B2A3F804142CE73E2A0AD85108C0
:1026E40012F0010F00D001318A0292B2A3F80C2437
:1026F400FFF7F3BB510912F01F0F00D101396FEA44
:10270400C1626FEA524292B2A3F80C24FFF7E5BB10
:10271400012B7FF4E2ABB5F850309BB22B44217807
:1027240003EB011392B2A3F80C24FFF7D6BB0120EC
:10273400FFF7E4BB10B45C0800EB420000F58060D6
:1027440007E030F8042B0A70C2F307224A70023102
:10275400013C002CF5D113F0010F01D003880B705C
:1027640010BC704710B504460E4B1A784FF47A73B8
:10277400B3FBF2F30C4A1068B0FBF3F000F05CFD1D
:1027840068B90F2C01D901200AE0002221464FF03C
:10279400FF3000F033FD054B1C60002000E00120F9
:1027A40010BD00BF5000002058000020540000203D
:1027B40008B5074A136843F010031360032000F0C0
:1027C4000BFD0F20FFF7CEFFFDF754FE002008BDE0
:1027D40000200240034A1168034B1B780B4413602A
:1027E400704700BF7009002050000020014B18689A
:1027F400704700BF7009002082B0084B1B68084A6C
:10280400A2FB03235B0A00FB03F3019300BF019BBC
:102814005A1E0192002BF9D102B0704758000020D3
:10282400D34D6210002800F0F18170B582B00446E7
:10283400036813F0010F2CD0994B5B6803F00C0371
:10284400042B1DD0964B5B6803F00C03082B12D0AD
:102854006368B3F5803F41D0002B55D103F1804329
:1028640003F504331A6822F480321A601A6822F4D9
:1028740080221A6037E08A4B5B6813F4803FE7D00C
:10288400874B1B6813F4003F03D06368002B00F0F0
:10289400BF81236813F0020F75D0814B5B6813F07E
:1028A4000C0F5FD07E4B5B6803F00C03082B54D0F5
:1028B4002369002B00F08A807A4B01221A60FFF70B
:1028C40095FF0546764B1B6813F0020F75D1FFF791
:1028D4008DFF401B0228F5D903209EE1704A13683E
:1028E40043F480331360636843B3FFF77FFF054607
:1028F4006B4B1B6813F4003FCBD1FFF777FF401BF2
:102904006428F5D9032088E1B3F5A02F09D0644BDE
:102914001A6822F480321A601A6822F480221A603B
:10292400E1E703F18043A3F53C331A6842F48022C3
:102934001A601A6842F480321A60D4E7FFF756FF2F
:102944000546574B1B6813F4003FA2D0FFF74EFF18
:10295400401B6428F5D903205FE1514B5B6813F4F5
:10296400803FA5D14E4B1B6813F0020F03D023699F
:10297400012B40F04F814A4A136823F0F803616940
:1029840043EAC1031360236813F0080F33D0A3692B
:10299400002B5CD0434B0122C3F88024FFF726FFB1
:1029A40005463F4B5B6A13F0020F21D1FFF71EFF70
:1029B400401B0228F5D903202FE1394A136823F07C
:1029C400F803616943EAC1031360DCE7354B002275
:1029D4001A60FFF70BFF0546314B1B6813F0020F1B
:1029E400D1D0FFF703FF401B0228F5D9032014E1DF
:1029F4000120FFF701FF236813F0040F00F0968015
:102A0400274BDB6913F0805F34D1254BDA6942F040
:102A14008052DA61DB6903F080530193019B012545
:102A2400214B1B6813F4807F26D0E368012B3DD033
:102A3400002B53D103F1804303F504331A6A22F0C7
:102A440001021A621A6A22F004021A6233E0154B78
:102A54000022C3F88024FFF7C9FE0546104B5B6AC9
:102A640013F0020FC7D0FFF7C1FE401B0228F5D9AF
:102A74000320D2E00025D3E70B4A136843F48073A4
:102A84001360FFF7B3FE0646074B1B6813F4807F01
:102A9400CBD1FFF7ABFE801B6428F5D90320BCE043
:102AA4000010024000004242007000405F4A136A76
:102AB40043F001031362E36833B3FFF797FE06465E
:102AC4005A4B1B6A13F0020F2FD1FFF78FFE801BA6
:102AD40041F288339842F3D903209EE0052B09D0B4
:102AE400524B1A6A22F001021A621A6A22F0040294
:102AF4001A62E0E74D4B1A6A42F004021A621A6A3B
:102B040042F001021A62D6E7FFF770FE0646474B11
:102B14001B6A13F0020F08D0FFF768FE801B41F216
:102B240088339842F3D9032077E0E5B9E369002BB1
:102B340072D03E4A526802F00C02082A56D0022B88
:102B440017D03B4B00221A66FFF750FE0446374B62
:102B54001B6813F0007F47D0FFF748FE001B0228D4
:102B6400F5D9032059E0314AD36923F08053D36166
:102B7400DCE72F4B00221A66FFF738FE05462B4B85
:102B84001B6813F0007F06D0FFF730FE401B0228BD
:102B9400F5D9032041E0236AB3F5803F1AD02349D5
:102BA4004B6823F47413226A606A024313434B6034
:102BB4001F4B01221A66FFF719FE04461B4B1B68C4
:102BC40013F0007F0ED1FFF711FE001B0228F5D988
:102BD400032022E0154A536823F40033A1680B4311
:102BE4005360DCE7002018E0002016E0012B16D02B
:102BF4000E4B5B6803F48031226A914211D103F4D5
:102C04007013626A93420ED1002006E001207047DF
:102C1400012002E0012000E0002002B070BD01208C
:102C2400FBE70120F9E70120F7E700BF00100240AD
:102C34000000424286B0174B0FCB0DF1180C0CE983
:102C44000F0040F20123ADF80430134B5B6803F02E
:102C54000C02082A02D0114806B07047C3F383421D
:102C640018326A4412F8100C13F4803F0DD00A4B4A
:102C74005B68C3F3404318336B4413F8143C074AAE
:102C840002FB00F0B0FBF3F0E6E7054B03FB00F0BA
:102C9400E2E700BF843F00080010024000127A00FF
:102CA40000093D00002800F0A08070B50D460446E0
:102CB400524B1B6803F007038B420BD24F4A136835
:102CC40023F007030B431360136803F007038B42DD
:102CD40040F08D80236813F0020F17D013F0040F17
:102CE40004D0474A536843F4E0635360236813F005
:102CF400080F04D0424A536843F460535360404A77
:102D0400536823F0F003A1680B435360236813F066
:102D1400010F31D06368012B20D0022B25D0384A13
:102D2400126812F0020F64D035494A6822F0030297
:102D340013434B60FFF75AFD0646314B5B6803F0C3
:102D44000C036268B3EB820F16D0FFF74FFD801BB4
:102D540041F288339842F0D9032045E0284A1268AA
:102D640012F4003FE0D101203EE0254A126812F03F
:102D7400007FD9D1012037E0204B1B6803F0070303
:102D8400AB420AD91D4A136823F007032B4313608F
:102D9400136803F00703AB422DD1236813F0040F2B
:102DA40006D0174A536823F4E063E1680B43536089
:102DB400236813F0080F07D0114A536823F46053B3
:102DC400216943EAC1035360FFF734FF0C4B5B688E
:102DD400C3F303130B4AD35CD8400B4B18600B4B63
:102DE4001868FFF7BFFC002070BD01207047012068
:102DF400FAE70120F8E70120F6E700BF00200240CF
:102E040000100240983F00085800002054000020A1
:102E140070B582B00446036813F0010F36D03F4BFF
:102E2400DB6913F0805F49D13C4BDA6942F0805290
:102E3400DA61DB6903F080530193019B0125384B70
:102E44001B6813F4807F3BD0344B1B6A13F440732C
:102E540013D0626802F440729A420ED02F4A136A69
:102E640023F440702F490126C1F840640026C1F8BC
:102E74004064106213F0010F36D1284A136A23F418
:102E8400407361680B431362002D3ED1236813F035
:102E9400020F06D0214A536823F44043A1680B4330
:102EA4005360236813F0100F34D01C4A536823F482
:102EB400800361690B43536000202CE00025BEE7CA
:102EC400174A136843F480731360FFF78FFC0646B8
:102ED400134B1B6813F4807FB6D1FFF787FC801B6C
:102EE4006428F5D9032016E0FFF780FC06460B4B57
:102EF4001B6A13F0020FC0D1FFF778FC801B41F26C
:102F040088339842F3D9032005E0D36923F0805332
:102F1400D361BBE7002002B070BD00BF00100240C7
:102F2400007000400000424270B582B00024A44604
:102F3400ACE0854DAB4210D007D9844DAB420CD0E8
:102F440005F58035AB4208D013E0A5F58015AB42FA
:102F540003D005F57025AB4207D18B68002B5FD0F9
:102F6400012B58D04261082403E0A5F58015AB423B
:102F7400F3D0BEF1FF0F55D806464FEA8C023368F2
:102F84000F25954023EA050304FA02F21343336044
:102F94004B6813F0805F77D06D4B9A6942F0010261
:102FA4009A619B6903F001030193019B4FEA9C0220
:102FB400951C684B53F825600CF00305AD000F23F6
:102FC400AB4026EA0306644B984232D003F5806393
:102FD400984200F0978003F58063984200F0948053
:102FE40003F58063984200F0918003F58063984272
:102FF40000F08E8003F58063984218D0062319E010
:10300400CC68B6E7CC680434B3E7CC680834B0E7DE
:10301400CC680C34ADE702610824AAE70024A8E7D1
:103024000424A6E7061DACF108029200A7E70523D5
:1030340000E00023AB4033430232464D45F82230D2
:103044004B6813F4803F65D0444A136843EA0E0387
:1030540013604B6813F4003F62D0404A536843EA5C
:103064000E0353604B6813F4801F5FD03B4A936890
:1030740043EA0E0393604B6813F4001F5CD0374A95
:10308400D36843EA0E03D3600CF1010C0B6833FAE6
:103094000CF257D0012202FA0CF203EA020E32EAD1
:1030A4000303F1D14B68122B3FF643AF122B3FF6CB
:1030B40060AF01A555F823F05F2F00080530000824
:1030C4000F30000821300008772F0008772F000800
:1030D400772F0008772F0008772F0008772F000834
:1030E400772F0008772F0008772F0008772F000824
:1030F400772F0008772F0008772F00080930000881
:1031040015300008012395E7022393E7032391E791
:1031140004238FE7114A136823EA0E03136098E728
:103124000E4A536823EA0E0353609BE70B4A9368E5
:1031340023EA0E0393609EE7084AD36823EA0E034A
:10314400D360A1E702B070BD00002210000031106E
:10315400001002400000014000080140000401404A
:103164008368194201D00120704700207047000095
:10317400002808DB0901C9B200F1604000F5614094
:1031840080F80013704700F00F000901C9B2014B29
:103194001954704714ED00E000B500F00700C0F1C9
:1031A400070CBCF1040F28BF4FF0040C031D062BC1
:1031B4000FD9C31E4FF0FF3E0EFA0CF021EA0001B6
:1031C40099400EFA03FE22EA0E0241EA02005DF87B
:1031D40004FB0023EEE70000074AD36823F4E0630E
:1031E4001B041B0C000200F4E060034343F0BF63C4
:1031F40043F40033D360704700ED00E010B504469B
:10320400054BD868C0F30220FFF7C6FF01462046ED
:10321400FFF7AEFF10BD00BF00ED00E0002807DBA4
:1032240000F01F02400901239340024A42F8203073
:10323400704700BF00E100E00138B0F1807F0BD29D
:103244004FF0E0235861054AF02182F82310002052
:10325400986107221A6170470120704700ED00E071
:10326400042806D04FF0E022136923F0040313610D
:1032740070474FF0E022136943F004031361704771
:10328400704798B108B50346D0F8B40210B10020D5
:10329400C3F8B40209B1C3F8B012012183F89C1237
:1032A4001A701846FDF73AFA002008BD022070474C
:1032B40019B1C0F8B412002070470220704708B555
:1032C400FDF760FA002008BD08B5D0F8B4322BB180
:1032D4001B68984700B908BD0220FCE70220FAE702
:1032E40008B5D0F8B4325B689847002008BD38B5FB
:1032F400044600F52A75284600F035F90123C4F880
:103304009432B4F8AE32C4F8983294F8A81201F0AA
:103314001F03012B0ED0022B11D02BB101F0800121
:103324002046FDF74AFA03E02946204600F0CAFA8F
:10333400002038BD2946204600F0F8FAF8E729466F
:10334400204600F023FBF3E738B504460D4691BB55
:103354001346D0F89422032A03D0052A24D0084621
:1033640033E0D0F86011D0F8642191420DD9891A64
:10337400C0F860118A4206D98AB21946204600F084
:1033840028FC284621E092B2F7E7D0F8B4321B6952
:103394001BB190F89C22032A04D0204600F021FCA3
:1033A400284612E09847F8E70021C0F89412FDF788
:1033B40004FA284609E0D0F8B4329B6933B190F896
:1033C4009C22032A04D19847002038BD0220FCE740
:1033D4000220FAE738B504460D46002953D11346B6
:1033E400D0F89422022A0CD0042A00D01AB98021E1
:1033F4002046FDF7E2F994F8A032012B3ED028468E
:1034040038BD026A416A8A421BD8C269B2FBF1F331
:1034140001FB13232BB9914203D8D0F898329A4276
:103424001CD3D4F8B432DB681BB194F89C22032A71
:1034340021D080212046FDF7C0F9204600F0DCFBB6
:10344400D9E7521A026292B2194600F0BAFB00237D
:103454001A4619462046FDF7E7F9CCE70022114643
:1034640000F0AFFB0021C4F898120B460A46204630
:10347400FDF7DAF9BFE720469847DAE7002384F836
:10348400A0322846BCE7D0F8B4325B6933B190F877
:103494009C22032A04D198470020B1E70220AFE719
:1034A4000220ADE770B50446402300221146FDF723
:1034B40071F90125C4F858514026C4F864613346B3
:1034C400002280212046FDF765F9A561666284F833
:1034D4009C520023C4F894326360C4F8A432D4F834
:1034E400B8322BB1D4F8B4325B6800212046984737
:1034F400002070BD01740020704790F89C3280F861
:103504009D32042380F89C320020704790F89C324E
:10351400042B01D00020704790F89D3280F89C3233
:10352400F8E708B590F89C32032B01D0002008BDC1
:10353400D0F8B432DB69002BF8D09847F6E703469D
:10354400002002E00130C0B201331A78002AF9D118
:10355400704708B54B88012B00D008BDC0F8A432D1
:1035640000F03FFBF9E70B7803704B7843708B78DE
:10357400CA7803EB022343800B794A7903EB0223D5
:1035840083808B79CA7903EB0223C380704710B51B
:1035940004468021FDF711F900212046FDF70DF9BD
:1035A40010BD30B583B005460C460023ADF8063097
:1035B4004A88130A013B062B00F2A480DFE803F0DB
:1035C40004182CA2A2869300D0F8B0321B680DF127
:1035D4000601007C9847BDF806201AB1E388002B49
:1035E40040F09480E388002B00F09A8003B030BD53
:1035F400037C43B9D0F8B4329B6A0DF106009847B6
:1036040002234370E7E7D0F8B432DB6A0DF1060019
:10361400984702234370DEE7D2B2052A52D8DFE886
:1036240002F003101D2A3744D0F8B0325B6823B18E
:103634000DF10601007C9847CDE72146FFF7A7FF6F
:10364400D4E7D0F8B0329B6823B10DF10601007CB9
:103654009847C0E72146FFF79AFFC7E7D0F8B03292
:10366400DB6823B10DF10601007C9847B3E72146DE
:10367400FFF78DFFBAE7D0F8B0321B6923B10DF123
:103684000601007C9847A6E72146FFF780FFADE7D7
:10369400D0F8B0325B6923B10DF10601007C984784
:1036A40099E72146FFF773FFA0E7D0F8B0329B6992
:1036B40023B10DF10601007C98478CE72146FFF702
:1036C40066FF93E72146FFF762FF8FE7037C33B978
:1036D400D0F8B4325B6B0DF1060098477BE72146C6
:1036E400FFF755FF82E7037C43B9D0F8B4321B6B74
:1036F4000DF106009847072343706CE72146FFF756
:1037040046FF73E72146FFF742FF6FE79A4228BF5F
:103714001A46ADF806200146284600F045FA61E74E
:10372400284600F05EFA61E738B504468B88F3B9A1
:10373400CB88E3B94B887F2B19D803F07F0590F829
:103744009C32032B0CD080F89E522946FDF75CF87E
:10375400204600F046FA35B1022384F89C3209E091
:10376400FFF715FF06E0012384F89C3202E02046AF
:10377400FFF70DFF38BD000038B504460D468978C3
:10378400284B197001290ED890F89C32022B0ED0C8
:10379400032B21D02946FFF7FAFE224B1978204645
:1037A400FFF79EFD02E02946FFF7F1FE38BD81B127
:1037B4004160032380F89C32FFF786FD022803D082
:1037C400204600F00EFAF1E729462046FFF7DFFE17
:1037D400ECE700F006FAE9E789B1436899421DD0A5
:1037E400D9B2FFF77DFD0F4B197861602046FFF7D2
:1037F4006BFD02280DD0204600F0F3F9D6E7022332
:1038040080F89C324160FFF76BFD204600F0E9F937
:10381400CCE729462046FFF7BAFEC7E700F0E1F9F6
:10382400C4E700BF7409002008B5CB88012B0AD176
:1038340090F89C32022B09D9032B09D10122011DD6
:1038440000F0B2F901E0FFF7A2FE08BD5BB213B9C4
:10385400FFF79DFEF9E70146002341F8083F0122E6
:1038640000F0A2F9F1E708B590F89C32013B022B75
:1038740012D8CB88022B0CD10123C360D0F8A43218
:103884000BB10323C360022200F10C0100F08CF998
:1038940008BDFFF77CFEFBE7FFF779FEF8E708B504
:1038A40090F89C32013B022B09D84B88012B00D0A5
:1038B40008BD0023C0F8A43200F093F9F8E7FFF73D
:1038C40066FEF5E708B50B7803F06003202B05D0FE
:1038D400402B03D043B1FFF75AFE03E0D0F8B432D3
:1038E4009B689847002008BD4B78092B1BD8DFE85C
:1038F40003F011171A141A08051A0E0BFFF751FEDC
:10390400F0E7FFF711FFEDE7FFF736FFEAE7FFF710
:103914008BFFE7E7FFF7A7FFE4E7FFF71AFEE1E70E
:10392400FFF7BDFFDEE7FFF732FEDBE738B50546FC
:103934000C460B7803F06003202B06D0402B04D0F8
:103944001BB1FFF724FE002038BD95F89C32013BE3
:10395400022B16D82379012B0ED8D5F8B4329B68E4
:10396400214628469847E388002BECD10028EAD169
:10397400284600F036F9E6E721462846FFF707FE19
:10398400E1E721462846FFF702FEDCE770B505466D
:103994008B880C7804F06004202C07D0DAB2402C19
:1039A40004D05CB1FFF7F3FD002405E0D5F8B43290
:1039B4009B68284698470024204670BD202C09D0D7
:1039C4004E78012E33D0032E0AD0002E55D0FFF7A7
:1039D400DEFDF1E7D0F8B4329B6898470446EBE784
:1039E40090F89C32022B04D0032B11D0FFF7CFFDAB
:1039F400E2E70AB1802A03D12846FFF7C8FDDBE7D6
:103A04001146FCF7DAFE80212846FCF7D6FED3E700
:103A14004B8823B91AB1802A01D0CB881BB1284620
:103A240000F0DFF8C8E71146FCF7C7FEF7E790F8A7
:103A34009C32022B04D0032B11D0FFF7A8FDBBE767
:103A44000AB1802A03D12846FFF7A1FDB4E7114645
:103A5400FCF7B3FE80212846FCF7AFFEACE74B88A9
:103A6400002BA9D112F07F0F03D1284600F0B9F83A
:103A7400A2E71146FCF7A9FEF7E790F89C0202289A
:103A840006D0032829D02846FFF781FD344693E762
:103A94000AB1802A13D113F0800F15D102F07F02EE
:103AA40002EB8202910001F5A8712944043100233C
:103AB4000B600222284600F077F834467CE728465B
:103AC400FFF765FD344677E702F07F0202EB8202DE
:103AD4009100103129440431E9E75BB2002B1FDB6C
:103AE40002F00F0000EB800005EB8000D0F85801D5
:103AF40020B3002B27DB02F07F0303EB83039C003E
:103B040004F5A8742C4404340AB1802A24D1002377
:103B1400236002222146284600F046F834464BE74B
:103B240002F00F0000EB800005EB800080690028A4
:103B3400DFD12846FFF72BFD34463DE72846FFF743
:103B440026FD344638E702F07F0303EB83039C0031
:103B540010342C440434D7E711462846FCF73DFEC4
:103B640010B101232360D4E700232360D1E7D0B14F
:103B740070B50D4616460446FFF7E1FC431C5B0096
:103B84009BB233802B7003236B70022307E0013454
:103B94005A1CD2B2E8540233DBB20021A954207873
:103BA4000028F4D170BD704708B513460222C0F84E
:103BB4009422C36103620A460021FCF72DFE002013
:103BC40008BD08B513460A460021FCF725FE00206F
:103BD40008BD08B513460A460021FCF725FE00205F
:103BE40008BD08B50423C0F8943200231A461946C8
:103BF400FCF712FE002008BD08B50523C0F8943276
:103C040000231A461946FCF70FFE002008BD0000E9
:103C140022230380004870473401002022230380BC
:103C24000048704710010020222303800048704799
:103C3400EC000020D0F8B832002018737047000060
:103C44000A23038000487047D400002070B582B076
:103C5400D0F8B8520023ADF806300C7814F06004A4
:103C640025D0202C72D14B78023B092B1BD8DFE8DE
:103C740003F014091A1A1A1A1A1A0F058B782B60F2
:103C8400002466E001222946FFF78EFF002460E04D
:103C94004B881B0A6B6000245BE00122291DFFF79F
:103CA40083FF002455E0FFF772FC022451E04E78B4
:103CB4000B2E47D8DFE806F006464646464615462C
:103CC40046462D3B90F89C32032B03D0FFF75FFC54
:103CD40002243EE002220DF10601FFF765FF34469F
:103CE40037E04B881B0A222B09D0212B0DD1CA881F
:103CF400092A28BF09221849FFF756FF29E0CA8874
:103D0400752A28BF75221549F6E7FFF740FC0224FF
:103D14001FE090F89C32032B03D0FFF738FC0224F9
:103D240017E0012205F10801FFF73EFF11E090F8CA
:103D34009C32032B02D18B78AB600AE0FFF727FC9F
:103D4400022406E0FFF723FC022402E0FFF71FFC35
:103D54000224204602B070BDE00000205C00002078
:103D640010B504468121FCF720FD0023E362D4F85A
:103D7400B80220B1FCF764FD0023C4F8B832002077
:103D840010BD10B50446082303228121FCF702FD6F
:103D94000123E3621020FCF74FFDC4F8B80218B108
:103DA40003460020187310BD0220FCE710B5D0F8BC
:103DB400B84290F89C32032B01D0002010BD237B25
:103DC400002BFAD10123237313460A468121FCF701
:103DD40023FDF2E730B44FF0E0235D699C69196973
:103DE400586100229A611A6942F001021A614FF087
:103DF400E0231B6903F00113012BF8D04FF0E023FB
:103E04001A6922F001021A6100229A615D619C61C3
:103E1400196130BC7047000008B50020FFF720FA94
:103E2400074B1B68074AA2FB03235B0D064A13607A
:103E34004FF47A7202FB03F3044A136008BD00BF17
:103E44005800002083DE1B437C09002078090020F1
:103E540008B5034B1B6803FB00F0FFF7BBFF08BD6D
:103E6400780900200C480D490D4A002302E0D4587B
:103E7400C4500433C4188C42F9D30A4A0A4C0023B0
:103E840001E013600432A242FBD3FFF7F9F900F01A
:103E94000FF8FCF72FFA7047000000209001002073
:103EA400B03F00089001002080090020FEE70000D8
:103EB40070B500260C4D0D4C641BA410A64209D10C
:103EC40000F022F800260A4D0A4C641BA410A642F6
:103ED40005D170BD55F8043B98470136EEE755F817
:103EE400043B98470136F2E7A83F0008A83F0008C2
:103EF400A83F0008AC3F000803460244934200D1A7
:103F0400704703F8011BF9E7F8B500BFF8BC08BC1B
:103F14009E467047F8B500BFF8BC08BC9E46704783
:103F2400010000000000000000000000020000008A
:103F3400000000000000000053544D333220487547
:103F44006D616E20696E7465726661636500000060
:103F540053544D6963726F656C656374726F6E69F7
:103F64006373000048494420436F6E66696700002C
:103F740048494420496E74657266616365000000B7
:103F840002030405060708090A0B0C0D0E0F101096
:103F94000000000000000000000000000102030413
:043FA40006070809FB
:043FA8004D020008BE
:043FAC0025020008E2
:103FB0001A030000000000000000000000000000E4
:103FC00000000000000000000000000004030904DD
:103FD000120100020000004083042B57000201027E
:103FE00003010000FD04000809050008CD050008D4
:103FF000A905000895050008E90500080D06000858
:1040000001000000100000000024F4000501090672
:10401000A1018501050719E029E7150025017501B2
:1040200095088102950175088103950575010508BC
:1040300019012905910295017503910395067508EB
:10404000150025650507190029658100C0050109CE
:1040500002A10185020901A1000509190129031521
:104060000025019503750181029501750581030500
:1040700001093009311581257F750895028106C037
:10408000C00000000A06000200000040010000001D
:10409000092111010001227500000000090222001F
:1040A000010100E0320904000001030101000921BF
:1040B000110100012275000705810308000A0000B4
:1040C00009022200010100E032090400000103019D
:1040D0000100092111010001227500070581030873
:1040E0000007000009022200010100E0320904007B
:1040F00000010301010009211101000122750007DF
:1041000005810308000A0000873D0008653D00089E
:10411000513C00080000000000000000393C00088D
:10412000000000000000000000000000000000008F
:10413000213C0008153C00082D3C0008453C0008C7
:0400000508003E6948
:00000001FF
