:020000040800F2
:1000000000000120494A0008850300088703000812
:10001000890300088B0300088D030008000000001E
:100020000000000000000000000000008F03000836
:1000300091030008000000009303000895030008E6
:10004000914A0008914A0008914A0008914A000824
:10005000914A0008914A0008914A0008914A000814
:10006000914A0008914A0008914A0008914A000804
:10007000914A0008914A0008914A0008914A0008F4
:10008000914A0008914A0008914A0008914A0008E4
:100090009D030008914A0008914A0008914A00080F
:1000A000914A0008914A0008914A0008914A0008C4
:1000B000914A0008914A0008914A0008914A0008B4
:1000C000914A0008914A0008914A0008914A0008A4
:1000D000914A0008914A0008914A0008914A000894
:1000E000914A0008914A0008914A0008914A000884
:1000F000914A0008914A0008914A0008914A000874
:10010000914A0008914A0008914A0008914A000863
:10011000914A0008914A0008914A0008914A000853
:10012000914A0008914A0008914A0008914A000843
:1001300000000000000000000000000000000000BF
:1001400000000000000000000000000000000000AF
:10015000000000000000000000000000000000009F
:10016000000000000000000000000000000000008F
:10017000000000000000000000000000000000007F
:10018000000000000000000000000000000000006F
:10019000000000000000000000000000000000005F
:1001A000000000000000000000000000000000004F
:1001B000000000000000000000000000000000003F
:1001C000000000000000000000000000000000002F
:1001D000000000000000000000000000000000001F
:0401E0005FF8E0F1F3
:1001E4000348044B834202D0034B03B118477047C2
:1001F4002001002020010020000000000548064BDB
:100204001B1AD90F01EBA301491002D0034B03B110
:100214001847704720010020200100200000000042
:1002240010B5064C237843B9FFF7DAFF044B13B13A
:100234000448AFF300800123237010BD2001002087
:1002440000000000084B000808B5054B1BB1054928
:100254000548AFF30080BDE80840FFF7CFBF00BFFB
:100264000000000024010020084B000872B6FEE7DD
:1002740000B597B0282200210CA804F03BFC002311
:100284000793089309930A930B930193029303939F
:1002940004930593069301220C924FF480330D933B
:1002A40010920222139214934FF4E01315930CA8A6
:1002B40002F098FAC0B90F23079302210891002392
:1002C40009934FF480620A920B9307A802F0CAFCC8
:1002D40060B9102301930023069301A802F078FD6E
:1002E40030B917B05DF804FBFFF7C0FFFFF7BEFF9E
:1002F400FFF7BCFF08B502F03BFAFFF7B9FF00F0C7
:1003040003F800F073F8FEE730B589B000240494D4
:10031400059406940794174B9A6942F040029A6137
:100324009A6902F040020192019A9A6942F010021D
:100334009A619A6902F010020292029A9A6942F052
:1003440004029A619B6903F004030393039B18233B
:1003540004930125069504A9074802F0C5FD0495F8
:1003640005940223069304A9044802F0BDFD09B0D4
:1003740030BD00BF001002400018014000080140D9
:10038400FEE7FEE7FEE7FEE7FEE7704770477047CB
:1003940008B502F0FFF908BD08B5024800F081FF76
:1003A40008BD00BF700E002082B00E4B9A6942F067
:1003B40001029A619A6902F001020092009ADA69D4
:1003C40042F08052DA61DB6903F080530193019BB0
:1003D400054A536823F0E06343F00073536002B0AE
:1003E400704700BF001002400000014008B5002221
:1003F4000F49104803F071F870B90F490D4803F024
:1004040083F860B90D490B4803F0AEFE50B90948B2
:1004140003F081F848B908BDFFF728FFEDE7FFF7BF
:1004240025FFEFE7FFF722FFF1E7FFF71FFFF2E7F2
:10043400340000203C010020E80000205C00002083
:1004440012230B80004870472000002004230B80F7
:10045400004870471C000020002393421ED200B5C0
:1004640010E00CF1370C01F813C000014FEA430C03
:100474000CF1010C4FF0000E01F80CE00133DBB27B
:10048400934209D24FEA107CB0F1204FE9D20CF12B
:10049400300C01F813C0E8E75DF804FB7047000076
:1004A40038B50B4BD3F8E807D3F8EC47D3F8F0375B
:1004B400C01800D138BD074D08222946FFF7CCFFEC
:1004C400042205F110012046FFF7C6FFF2E700BF42
:1004D40000F0FF1F0200002008B51A230B80FFF76D
:1004E400DFFF014808BD00BF0000002008B50A4630
:1004F40028B90549054803F066FC034808BD0249CC
:10050400024803F060FCF8E700040020204B0008D8
:1005140010B50A46034C2146034803F054FC204618
:1005240010BD00BF00040020344B000808B50A4683
:1005340028B90549054803F046FC034808BD0249AB
:10054400024803F040FCF8E700040020484B000890
:1005540008B50A4628B90549054803F034FC0348A0
:1005640008BD0249024803F02EFCF8E7000400200D
:10057400544B0008022805D8DFE800F00504020007
:10058400012070470220704702680E4B9A4200D047
:10059400704700B583B003F5DA33DA6942F4000238
:1005A400DA61DB6903F400030193019B0022114625
:1005B400142002F0FBFD142002F008FE03B05DF8E5
:1005C40004FB00BF005C004008B500F52C71D0F8B6
:1005D400E80202F0B8FF08BD08B501EB810300EBA7
:1005E400C303D3F87C21D0F8E80202F0D9FF08BD98
:1005F40008B501EB810300EBC303DA6BD0F8E80222
:1006040003F014F808BD08B5D0F8E80203F0B5F813
:1006140008BD10B504468368022B09D10121D4F822
:10062400E80203F093F8D4F8E80203F067F810BD89
:10063400FFF71CFEF2E7000010B50446D0F8E8020C
:1006440003F087F8A36923B1024A136943F0060350
:10065400136110BD00ED00E008B5D0F8E80203F026
:1006640081F808BD10B504461948C0F8E842C4F83A
:10067400C002184B036008234360022383600023F5
:100684008361C361036200F023F9E8B918230022EF
:100694001146D4F8C00201F047F858230022802103
:1006A400D4F8C00201F040F8982300228121D4F844
:1006B400C00201F039F8D82300220121D4F8C00285
:1006C40001F032F8002010BDFFF7D0FDDEE700BFD7
:1006D400700E0020005C004008B5D0F8C00200F0A5
:1006E40083F9FFF747FF08BD08B594461A466346E9
:1006F400D0F8C00200F0BFFEFFF73CFF08BD08B50C
:10070400D0F8C00200F0F9FEFFF734FF08BD08B5C9
:10071400D0F8C00200F0EDFFFFF72CFF08BD08B5CC
:10072400D0F8C00200F06EFFFFF724FF08BD08B543
:10073400D0F8C00200F0A2FFFFF71CFF08BDD0F8FC
:10074400C03211F0800F08D101F07F0101EB81016B
:1007540003EBC10393F86A01704701F07F01013193
:1007640001EB810103EBC1039878704708B5D0F819
:10077400C00200F082FDFFF7FDFE08BD08B5D0F809
:10078400C00200F017FFFFF7F5FE08BD08B5D0F86A
:10079400C00200F0E4FEFFF7EDFE08BD08B5D0F896
:1007A400C00200F0FEFE08BD0048704700060020AD
:1007B4007047704738B512F4804F44D00468B4F8D9
:1007C40050309BB291F800C003EBCC03023304EB2E
:1007D4004304B4F80044C4F309048B69A34228D346
:1007E4001B1B8B618B697BB9056835F82C309BB278
:1007F40023F4804323F0700383F4005343F4004351
:1008040043F0800325F82C3012F0400F0ED002681C
:100814000D7832F825309BB223F4E04323F07003C3
:1008240043F4004343F0C00322F8253024B92046A2
:1008340038BD00238B61D5E723460A8949690068DE
:1008440001F058FFF3E70468B4F850309BB291F814
:1008540000C003EBCC03063304EB4304B4F80044B8
:10086400C4F309048B69A3422FD31B1B8B618B69CF
:100874007BB9056835F82C309BB223F4804323F010
:10088400700383F4005343F4004343F0800325F8DA
:100894002C3012F0400F0FD1026891F800C032F8EA
:1008A4002C309BB223F4E04323F0700343F4004361
:1008B40043F0C00322F82C30002CB8D023464A89D8
:1008C4004969006801F016FFB1E700238B61CEE7A8
:1008D40070B586B0002800F08580044690F8A932EF
:1008E400EBB1032384F8A932206800F049FF2546C0
:1008F40055F8106BEC460FCDACE80F002B68CCF824
:100904000030231D0ECB304600F02AFF054658B1B7
:10091400022384F8A9320125284606B070BD80F868
:10092400A832FFF731FEDCE70021206800F032FF37
:100934002B461AE05A1C02EB820104EBC101012090
:10094400487002EB820104F8313003EB830104EBBD
:10095400C101CB8602EB820C04EBCC0C00208CF89A
:1009640003008863C8630864D3B261688B42E1D32F
:1009740016E005EB850304EBC303002283F8692129
:1009840083F8685183F86B21C3F87821C3F87C217C
:1009940005EB850304EBC303C3F880210135EDB2F5
:1009A400A942E6D8254655F8106BEC460FCDACE8C5
:1009B4000F002B68CCF80030231D0ECB304600F01E
:1009C400EBFE054620B1022384F8A9320125A3E7F2
:1009D400002384F82430012384F8A932206801F02C
:1009E40015FA99E7012597E738B590F8A832012B55
:1009F40011D00446012580F8A852006800F0B7FE23
:100A040029462046FFF7D5FE206801F0FDF90020B5
:100A140084F8A80238BD0220FCE770B505460C46F0
:100A2400164612F0400F00F00D810268B2F8503003
:100A34009BB2097803EBC103023302EB4302B2F821
:100A44000024C2F30902A369934252D99B1AA361F9
:100A5400A369002B6AD16378002B4DD12B68B3F8BE
:100A6400502092B2134403EB0113B3F8042492B25E
:100A740022F4F84292B2A3F80424B3F804246FEAEF
:100A840042426FEA524292B2A3F804242B6862787D
:100A9400002A3ED1B3F8502092B21344227803EBDB
:100AA4000213B3F80C2492B222F4F84292B2A3F8DF
:100AB4000C24B3F80C246FEA42426FEA524292B219
:100AC400A3F80C2421782846FFF792FD16F4804FF2
:100AD40041D02A68217832F821309BB223F4E043D4
:100AE40023F0700343F4404343F0800322F82130A1
:100AF40031E00023A361ABE7012BC7D12B68B3F826
:100B0400502092B2134403EB01130022A3F80424EF
:100B1400BCE7012AD6D1B3F8502092B2134422780C
:100B240003EB02130022A3F80C24CBE716F4804F46
:100B34000DD0286830F821309BB223F4E04323F031
:100B4400700343F4404343F0800320F8213094F8C9
:100B54002430012B12D02A68217832F821309BB23C
:100B640023F4E04323F0400383F0300343F40043D1
:100B740043F0800322F82130002070BD63691344E0
:100B84006361E3691344E361216A236999421FD3D2
:100B9400C91A21626278002A3FD12A68B2F850103B
:100BA40089B20A44217802EB0112EBB9B2F80414B9
:100BB40089B221F4F84189B2A2F80414B2F80414F9
:100BC4006FEA41416FEA514189B2A2F8041426E068
:100BD40021B9002384F824301346DBE7002384F88A
:100BE400243023620B46D5E73E2B09D8590813F06D
:100BF400010F00D00131890289B2A2F804140EE079
:100C0400590913F01F0F00D101396FEAC1616FEA6E
:100C1400514189B2A2F8041401E0012A06D09BB222
:100C240022896169286801F0F9F894E72A68B2F822
:100C3400501089B20A44217802EB011299B2A2F849
:100C44000414ECE70268B2F850309BB2097803EB65
:100C5400C103063302EB4302B2F80024C2F30902D3
:100C6400A369934253D39B1AA361A369002B6BD14D
:100C74006378002B4ED12B68B3F8502092B2134402
:100C840003EB0113B3F8042492B222F4F84292B2B3
:100C9400A3F80424B3F804246FEA42426FEA5242F0
:100CA40092B2A3F804242B686278002A3FD1B3F8E7
:100CB400502092B21344227803EB0213B3F80C24AD
:100CC40092B222F4F84292B2A3F80C24B3F80C24A2
:100CD4006FEA42426FEA524292B2A3F80C2421789E
:100CE4002846FFF785FC16F4804F7FF434AF2A685A
:100CF400217832F821309BB223F4E04323F07003CF
:100D040043F4404343F0800322F8213023E70023D7
:100D1400A361AAE7012BC6D12B68B3F8502092B285
:100D2400134403EB01130022A3F80424BBE7012AB4
:100D3400D5D1B3F8502092B21344227803EB0213B6
:100D44000022A3F80C24CAE716F4804F0DD12868BA
:100D540030F821309BB223F4E04323F0700343F4D2
:100D6400404343F0800320F8213094F82430012BD1
:100D74007FF4F1AE636913446361E3691344E3618F
:100D8400216A236999421FD3C91A21622A686178AA
:100D940000293ED1B2F8501089B20A44217802EBFE
:100DA4000112EBB9B2F80C1489B221F4F84189B2FA
:100DB400A2F80C14B2F80C146FEA41416FEA5141E5
:100DC40089B2A2F80C1426E021B9002384F8243057
:100DD4001346DBE70023236284F824300B46D5E76F
:100DE4003E2B09D8590813F0010F00D001318902B4
:100DF40089B2A2F80C140EE0590913F01F0F00D1A8
:100E040001396FEAC1616FEA514189B2A2F80C1449
:100E140001E0012906D09BB262896169286800F06B
:100E2400FDFF98E6B2F8501089B20A44217802EB2B
:100E3400011299B2A2F80C14EDE72DE9F041054630
:100E44002868B0F8443013F4004F00F01382B0F86F
:100E54004440A3B214F00F0440F0D88013F0100FF4
:100E640061D003889AB213F4006F40F0938012F4B7
:100E7400004FE5D0038823F070031B051B0D43F0DE
:100E8400800303802868B0F850309BB295F868213D
:100E940003EBC203063300EB4303B3F80034C3F39C
:100EA4000903C5F884318BB1D5F87C1171B1B5F85B
:100EB4006E2101F01FFCD5F87C31D5F88421134450
:100EC400C5F87C3100212846FFF786FB2B681A8879
:100ED40012F4006FB4D1B3F8502092B21344D5F891
:100EE4007821002A79D1B3F80C2492B222F4F84282
:100EF40092B2A3F80C24B3F80C246FEA42426FEACE
:100F0400524292B2A3F80C242A6813889BB223F4A9
:100F1400804323F0700383F4405343F4004343F0CD
:100F2400800313808CE703889BB223F4E14323F00E
:100F340070036FEA43436FEA53439BB203802A680A
:100F4400B2F850309BB295F8281003EBC10302337A
:100F540002EB4302B2F80034C3F309036B64EA6B97
:100F64001A44EA6300212846FFF742FB95F824302F
:100F7400002B3FF465AF2B6C002B7FF461AF95F829
:100F840024302A6843F08003A2F84C30002385F80B
:100F9400243055E7B0F850309BB295F8682103EB44
:100FA400C203063300EB4303B3F80034C3F309036D
:100FB400C5F88431B5F86E2105F52C7101F09AFB62
:100FC4002A68138823F070031B051B0D43F080036C
:100FD40013802846FFF7F8FA32E73E2A09D8510869
:100FE40012F0010F00D001318A0292B2A3F80C244E
:100FF4008AE7510912F01F0F00D101396FEAC1626B
:101004006FEA524292B2A3F80C247DE730F8243000
:101014009EB213F4004F4FD116F0800F3FF410AF7F
:10102400621C02EB820105EBC101286830F8243010
:101034009BB223F4E14323F070036FEA43436FEA66
:1010440053439BB220F82430CB78032B07D033B121
:10105400022B40F00A8116F4807F40F00681286854
:10106400B0F850309BB2621C02EB820215F8326079
:1010740003EBC603023300EB4303B3F80034C3F3BA
:10108400090304EB840205EBC202126C9A4240F29B
:10109400D48004EB840705EBC707D21A3A6404EB47
:1010A400840205EBC202126C002A40F0CD80314666
:1010B4002846FFF79DFAC3E630F8243023F0700386
:1010C4001B051B0D43F0800320F8243004EB84013E
:1010D400C90001F5B47105EB010804EB840305EBC9
:1010E400C30393F87431002B42D12868B0F8503010
:1010F4009BB204EB840205EBC20292F8682103EB75
:10110400C203063300EB4303B3F80074C7F30907C3
:1011140017BB04EB840305EBC303D3F884213A44DF
:10112400C3F88421D3F87C213A44C3F87C21D3F852
:1011340080313BB104EB840305EBC303D3F878316E
:101144009F4275D204EB840305EBC30393F8681143
:101154002846FFF741FA5FE704EB840105EBC10180
:101164003B46B1F86E21D1F87C1101F0C3FAD0E707
:1011740004EB840305EBC30393F86B31022B35D0E6
:10118400296804EB840205EBC20292F8680131F885
:1011940020309BB223F4E04323F0700343F4004374
:1011A40043F0C00321F82030286892F8682130F811
:1011B400223013F4804F20D0B0F850309BB203EBB0
:1011C400C203023300EB4303B3F80074C7F3090707
:1011D400002F9ED004EB840105EBC1013B46B1F81E
:1011E4007021D1F87C1101F085FA92E7324641462C
:1011F4002846FFF7DFFA07468BE7B0F850309BB27A
:1012040003EBC203063300EB4303B3F80074C7F3E4
:101214000907002F3FF47DAF04EB840105EBC10106
:101224003B46B1F87221D1F87C1101F063FA70E702
:101234004146286800F005FEEEE604EB840205EB67
:10124400C202002717642AE704EB840205EBC202FA
:10125400D66B1E44D663526C04EB840405EBC404C1
:101264001344636400F0EDFDEAE532462846FFF7D7
:10127400D4FBE5E50020BDE8F08190F8A832012B0D
:101284000DD010B50446012380F8A83280F824104C
:10129400006800F0B3FD002084F8A80210BD02200D
:1012A400704710B584B00446006800F0B1FD10F436
:1012B400004F47D1206800F0ABFD10F4806F45D19A
:1012C400206800F0A5FD10F4804F08D02268B2F821
:1012D40044309BB223F480439BB2A2F8443020688C
:1012E40000F096FD10F4005F08D02268B2F8443094
:1012F4009BB223F400539BB2A2F84430206800F060
:1013040087FD10F4805F32D1206800F081FD10F475
:10131400006F78D1206800F07BFD10F4007F40F06E
:101324009D80206800F074FD10F4807F08D022684E
:10133400B2F844309BB223F480739BB2A2F84430D9
:1013440004B010BD2046FFF778FDB3E72268B2F879
:1013540044309BB223F480639BB2A2F8443020460D
:10136400FFF757F900212046FFF787FFA8E7226817
:10137400B2F840309BB223F004039BB2A2F8403091
:101384002268B2F840309BB223F008039BB2A2F863
:1013940040302046FFF760F92268B2F844309BB22F
:1013A40023F480539BB2A2F84430ADE7226832F8AC
:1013B400231004AA02EB430222F8101C0133DBB20F
:1013C400072BF3D92268B2F840309BB243F00103F3
:1013D400A2F840302268B2F840309BB223F00103F7
:1013E4009BB2A2F840302368B3F8442012F4806F13
:1013F400F9D0B3F8442092B222F4806292B2A3F8F6
:10140400442000230BE00023DAE7226804A901EB5F
:10141400430131F8101C22F823100133DBB2072BEF
:10142400F3D92268B2F840309BB243F00803A2F823
:1014340040302268B2F844309BB223F400639BB27C
:10144400A2F844302268B2F840309BB243F004035F
:10145400A2F840302046FFF7EFF85BE72268B2F8C5
:1014640044309BB223F400739BB2A2F8443020466C
:10147400FFF7C9F855E710B504468C4611F0800F04
:101484002AD101F0070000EB8001C90001F5B47E08
:1014940004EB0E0100EB800004EBC0004FF0000EE3
:1014A40080F869E10CF0070C81F800C00A61CB7088
:1014B4004A780AB1A1F80EC0022B19D094F8A832C8
:1014C400012B18D0012384F8A832206800F079F9A0
:1014D400002084F8A80210BD01F00700013000EBE1
:1014E400800104EBC1014FF0010E81F801E0D9E75E
:1014F40000230B71E2E70220EDE710B504460B462A
:1015040011F0800F1FD101F0070202EB8201C90024
:1015140001F5B471014402EB820200EBC202002027
:1015240082F8690103F007030B7094F8A832012BC9
:1015340013D0012384F8A832206800F0FEFA0020BA
:1015440084F8A80210BD01F00702013202EB820107
:1015540000EBC10101204870E4E70220F2E710B576
:1015640001F0070404EB8401C90001F5B4710144DE
:1015740004EB840C00EBCC0CCCF87C21CCF880314F
:101584000023CCF884318CF869318CF8684124B993
:10159400006800F056FC002010BD006800F051FC0B
:1015A400F9E701F0070101EB810100EBC100D0F87C
:1015B4008401704710B501F0070404F1010C0CEB31
:1015C4008C0100EBC10104EB840E00EBCE0ECEF8CF
:1015D4003C20CEF8403001228EF84C20CEF8483022
:1015E4000023CEF844304A700CEB8C0C00F83C40DD
:1015F40024B9006800F025FC002010BD006800F04C
:1016040020FCF9E738B501F007054268954231D866
:1016140004460B4611F0800F1ED101EB8101C90075
:1016240001F5B471014403EB830300EBC30300220F
:1016340083F8692101238B700D7094F8A832012B73
:101644001AD0012384F8A832206800F061FB5DB150
:10165400002084F8A80238BD6B1C03EB830100EB67
:10166400C10101224A70E5E704F52C71206800F0FD
:10167400D3FBEDE70120EEE70220ECE70B4601F097
:101684000F014268914230D810B5044613F0800F20
:1016940021D103F0070202EB8201C90001F5B47104
:1016A400014402EB820200EBC202002082F86901CD
:1016B40000228A7003F007030B7094F8A832012B00
:1016C40015D0012384F8A832206800F046FB0020DE
:1016D40084F8A80210BD03F00702013202EB820174
:1016E40000EBC10101204870E2E7012070470220AD
:1016F400F0E790F8A832012B14D010B5044601236A
:1017040080F8A83211F0800F06D1006800F057F875
:10171400002084F8A80210BD01F00701006800F061
:101724004CF8F5E70220704711F0800F0BD001F060
:101734000701013101EB810100EBC10052B90273D1
:10174400C3800020704701EB8101C90001F5B47129
:101754000844F3E70122027303811B0C4381F0E781
:1017640084B001A880E80E00002004B0704703464E
:101774000020A3F844004FF43F42A3F840207047F0
:10178400B0F8403023F47C535B045B0CA0F8403089
:10179400002070470020704784B0844601A880E888
:1017A4000E000123ACF840300020ACF84000ACF847
:1017B4004400ACF8500004B070470020704700208B
:1017C400704710B5034691F800C030F82C2092B24F
:1017D40022F4EC4222F0700292B2C878032861D855
:1017E400DFE800F0555C0258002048F2800E42EA1F
:1017F4000E0223F82C2091F800C033F82C2092B26A
:1018040022F4E04222F0700242EA0C0242EA0E02A2
:1018140023F82C200A7B002A40F0C4804A78002A4E
:1018240051D0B3F8502092B21A440C7802EB04124F
:10183400B1F806C04FEA5C0C4FEA4C0CA2F800C4A5
:101844000C7833F8242012F0400F0CD033F8242005
:1018540092B222F4E04222F0700242F4004242F0DA
:10186400C00223F82420CA78012A1DD0097833F84D
:10187400212092B222F4E04222F0400282F02002BF
:1018840042F4004242F0800223F821206AE042F44C
:101894000072AAE742F4C0620020A6E742F4806224
:1018A4000020A2E70120A0E7097833F8212092B2B2
:1018B40022F4E04222F0400242F4004242F080026C
:1018C40023F821204EE0B3F8502092B21A440C7849
:1018D40002EB0412B1F806C04FEA5C0C4FEA4C0C60
:1018E400A2F808C4B3F8502092B21A440C7802EB60
:1018F40004120C69BCBBB2F80CC41FFA8CFC2CF4A7
:10190400F84C1FFA8CFCA2F80CC4B2F80CC46FEAB1
:101914004C4C6FEA5C4C1FFA8CFCA2F80CC40C789B
:1019240033F8242012F4804F0CD033F8242092B2E0
:1019340022F4E04222F0700242F4404242F080027B
:1019440023F82420097833F8212092B222F480422B
:1019540022F0700282F4405242F4004242F08002CB
:1019640023F8212010BD3E2C0DD84FEA540C14F05E
:10197400010F01D00CF1010C4FEA8C2C1FFA8CFCE6
:10198400A2F80CC4CBE74FEA541C14F01F0F01D18A
:101994000CF1FF3C6FEACC646FEA5444A4B2A2F8A1
:1019A4000C44BCE791F800C033F82C2092B222F426
:1019B400E04222F0700242F4014242F0800223F835
:1019C4002C20B3F8502092B21A4491F800C002EBD4
:1019D4000C12B1F808C04FEA5C0C4FEA4C0CA2F8A8
:1019E40000C4B3F8502092B21A4491F800C002EB3C
:1019F4000C12B1F80AC04FEA5C0C4FEA4C0CA2F886
:101A040008C44A78002A41D10C7833F8242012F40F
:101A1400804F0CD033F8242092B222F4E04222F01A
:101A2400700242F4404242F0800223F824200C78F1
:101A340033F8242012F0400F0CD033F8242092B253
:101A440022F4E04222F0700242F4004242F0C0026A
:101A540023F8242091F800C033F82C2092B222F409
:101A6400804222F0700282F4405248F28004224301
:101A740023F82C20097833F8212092B222F4E04292
:101A840022F04002224323F821206BE70C7833F83C
:101A9400242012F4804F0CD033F8242092B222F484
:101AA400E04222F0700242F4404242F0800223F805
:101AB40024200C7833F8242012F0400F0CD033F893
:101AC400242092B222F4E04222F0700242F4004256
:101AD40042F0C00223F82420CA78012A1ED00C78D0
:101AE40033F8242092B222F4E04222F0400282F041
:101AF400200242F4004242F0800223F824200978B4
:101B040033F8212092B222F4804222F0700242F48F
:101B1400004242F0800223F8212023E70C7833F8B6
:101B2400242092B222F4E04222F0400242F4004225
:101B340042F0800223F82420E1E70B7B002B46D1FE
:101B44004B7813B30A7830F8223013F0400F0CD0DE
:101B540030F822309BB223F4E04323F0700343F4C3
:101B6400004343F0C00320F822300A7830F82230D2
:101B74009BB223F4E04323F0400343F4004343F0D7
:101B8400800320F82230002070470A7830F8223091
:101B940013F4804F0CD030F822309BB223F4E0438E
:101BA40023F0700343F4404343F0800320F82230D1
:101BB4000A7830F822309BB223F4804323F0700378
:101BC40043F4004343F0800320F82230DBE74B78F2
:101BD400002B4ED10A7830F8223013F4804F0CD009
:101BE40030F822309BB223F4E04323F0700343F433
:101BF400404343F0800320F822300A7830F8223042
:101C040013F0400F0CD030F822309BB223F4E043A1
:101C140023F0700343F4004343F0C00320F8223060
:101C24000A7830F822309BB223F4E04323F07003A7
:101C340043F4004343F0C00320F822300A7830F81C
:101C440022309BB223F4804323F0700348F2800CCB
:101C540043EA0C0320F822300A7830F822309BB291
:101C640023F4E04323F0400343EA0C0320F822303A
:101C740089E70A7830F8223013F4804F0CD030F81A
:101C840022309BB223F4E04323F0700343F4404337
:101C940043F0800320F822300A7830F8223013F021
:101CA400400F0CD030F822309BB223F4E04323F0F1
:101CB400700343F4004343F0C00320F822300A7851
:101CC40030F822309BB223F4E04323F0700343F452
:101CD400404343F0800320F822300A7830F8223061
:101CE4009BB223F4E04323F0400348F2800C43EA20
:101CF4000C0320F822300A7830F822309BB223F407
:101D0400804323F0700343EA0C0320F822303AE7BF
:101D14004B788BB10A7830F822309BB223F4E0433D
:101D240023F0400383F0100343F4004343F08003A3
:101D340020F82230002070470A7830F822309BB215
:101D440023F4804323F0700383F4805343F400436B
:101D540043F0800320F82230ECE70B7B002B4BD1BF
:101D64004B7833B30A7830F8223013F0400F0CD09C
:101D740030F822309BB223F4E04323F0700343F4A1
:101D8400004343F0C00320F82230CB78012B33D03A
:101D94000A7830F822309BB223F4E04323F0400366
:101DA40083F0200343F4004343F0800320F82230FF
:101DB40022E00A7830F8223013F4804F0CD030F847
:101DC40022309BB223F4E04323F0700343F44043F6
:101DD40043F0800320F822300A7830F822309BB296
:101DE40023F4804323F0700383F4405343F400430B
:101DF40043F0800320F822300020704711B980237B
:101E0400A0F84C3000207047002070470020704735
:101E1400B0F8440080B270470020704701335B087B
:101E240000EB420000F5806008E00A7891F801C0F8
:101E340042EA0C2220F8042B0231013B002BF4D19E
:101E4400704770B505460C464B78012B37D00A7B9A
:101E5400002A40F026838B690A69934240F2048386
:101E64009B1A8B61B5F850309BB22B44217803EB5D
:101E74000113002A40F0FC82B3F80C2492B222F43D
:101E8400F84292B2A3F80C24B3F80C246FEA42424D
:101E94006FEA524292B2A3F80C24227835F8223029
:101EA4009BB223F4804323F0700383F4405343F440
:101EB400004343F0800325F82230002070BD8E6972
:101EC4000A69964200D91646237B002B39D0E37861
:101ED400022B58D0227835F822309BB223F4E04309
:101EE40023F0700343F4014343F0800325F82230C8
:101EF400236A9B1B2362237835F8232012F0400FBA
:101F040000F026826278002A40F0CA81B5F8502099
:101F140092B22A4402EB0313002E40F0A881B3F8D6
:101F24000C2492B222F4F84292B2A3F80C24B3F82F
:101F34000C246FEA42426FEA524292B2A3F80C2494
:101F4400B0E1B6B23346E28861692846FFF766FF1E
:101F5400B5F850309BB22B44227803EB0213A3F85C
:101F64000464227835F822309BB223F4E04323F052
:101F7400400383F0300343F4004343F0800325F827
:101F8400223000209AE7236A9A4280F05281227814
:101F940035F822309BB223F4E04323F0700343F47A
:101FA400014343F0800325F82230236A9B1B2362FC
:101FB400237835F8232012F0400F00F09D806278DA
:101FC4008ABBB5F8502092B22A4402EB03138EB9AF
:101FD400B3F80C2492B222F4F84292B2A3F80C247F
:101FE400B3F80C246FEA42426FEA524292B2A3F869
:101FF4000C241AE03E2E09D8720816F0010F00D006
:102004000132920292B2A3F80C240EE0720916F087
:102014001F0F00D1013A6FEAC2626FEA524292B2D4
:10202400A3F80C2401E0012A2BD0B3B262896169C0
:102034002846FFF7F3FE636933446361236A226928
:10204400934228D99B1B23626378002B40D1B5F8B7
:1020540050309BB22B44227803EB0213FEB9B3F841
:10206400042492B222F4F84292B2A3F80424B3F8FE
:1020740004246FEA42426FEA524292B2A3F8042463
:1020840028E0B5F8502092B22A4402EB0313B2B20E
:10209400A3F80C24C9E7002222621E46D4E73E2E90
:1020A40009D8720816F0010F00D00132920292B2E0
:1020B400A3F804240EE0720916F01F0F00D1013AB0
:1020C4006FEAC2626FEA524292B2A3F8042401E0BA
:1020D400012B06D0B3B2228961692846FFF79EFE20
:1020E4003FE7B5F850309BB22B44227803EB021340
:1020F400B2B2A3F80424EDE762788ABBB5F85020A5
:1021040092B22A4402EB03138EB9B3F8042492B2B8
:1021140022F4F84292B2A3F80424B3F804246FEA38
:1021240042426FEA524292B2A3F804241AE03E2ECD
:1021340009D8720816F0010F00D00132920292B24F
:10214400A3F804240EE0720916F01F0F00D1013A1F
:102154006FEAC2626FEA524292B2A3F8042401E029
:10216400012A2BD0B3B2228961692846FFF756FEB3
:10217400636933446361236A2269934228D99B1BB0
:1021840023626378002B40D1B5F850309BB22B44C6
:10219400227803EB0213FEB9B3F80C2492B222F4B2
:1021A400F84292B2A3F80C24B3F80C246FEA42422A
:1021B4006FEA524292B2A3F80C2428E0B5F85020FA
:1021C40092B22A4402EB0313B2B2A3F80424C9E77F
:1021D400002222621E46D4E73E2E09D8720816F069
:1021E400010F00D00132920292B2A3F80C240EE047
:1021F400720916F01F0F00D1013A6FEAC2626FEA4A
:10220400524292B2A3F80C2401E0012B06D0B3B2DF
:10221400628961692846FFF701FEA2E6B5F85030ED
:102224009BB22B44227803EB0213B2B2A3F80C2422
:10223400EDE7217835F8212092B222F4E24222F02F
:10224400700242F4004242F0800225F82120B5F8E1
:10225400502092B22A44217802EB01129BB2A2F8D8
:102264000434228961692846FFF7D8FD79E63E2EB9
:1022740009D8720816F0010F00D00132920292B20E
:10228400A3F80C240EE0720916F01F0F00D1013AD6
:102294006FEAC2626FEA524292B2A3F80C2401E0E0
:1022A400012A26D0B3B2628961692846FFF7B6FDD8
:1022B400636933446361236A2269934223D99B1B74
:1022C4002362002E3FF44DAE63786BBBB5F85030FB
:1022D4009BB22B44227803EB02133E2E17D87208CC
:1022E40016F0010F00D00132920292B2A3F8042436
:1022F4001CE0B5F8502092B22A4402EB0313B2B2A8
:10230400A3F80C24CEE7002222621E46D9E7720904
:1023140016F01F0F00D1013A6FEAC2626FEA52420F
:1023240092B2A3F8042401E0012B06D0B3B22289AF
:1023340061692846FFF772FD13E6B5F850309BB289
:102344002B44227803EB0213B2B2A3F80424EDE782
:1023540062788ABBB5F8502092B22A4402EB031388
:102364008EB9B3F8042492B222F4F84292B2A3F8DC
:102374000424B3F804246FEA42426FEA524292B250
:10238400A3F804241AE03E2E09D8720816F0010FAF
:1023940000D00132920292B2A3F804240EE0720932
:1023A40016F01F0F00D1013A6FEAC2626FEA52427F
:1023B40092B2A3F8042401E0012A26D0B3B2228900
:1023C40061692846FFF72AFD636933446361236A20
:1023D4002269934223D99B1B2362002E3FF4C1AD93
:1023E40063786BBBB5F850309BB22B44227803EB77
:1023F40002133E2E17D8720816F0010F00D00132D6
:10240400920292B2A3F80C241CE0B5F8502092B2C8
:102414002A4402EB0313B2B2A3F80424CEE7002249
:1024240022621E46D9E7720916F01F0F00D1013A45
:102434006FEAC2626FEA524292B2A3F80C2401E03E
:10244400012B06D0B3B2628961692846FFF7E6FC26
:1024540087E5B5F850309BB22B44227803EB021386
:10246400B2B2A3F80C24EDE700228A611A46F9E41B
:102474003E2A09D8510812F0010F00D00131890217
:1024840089B2A3F80C1408E5510912F01F0F00D10A
:1024940001396FEAC1616FEA514189B2A3F80C14A2
:1024A400FBE4CA78022A45D0012A40F020818969D8
:1024B4002269914240F2D480891AA161D3B9B5F856
:1024C40050309BB22B44217803EB0113002A40F0D7
:1024D400CB80B3F8041489B221F4F84189B2A3F88B
:1024E4000414B3F804146FEA41416FEA514189B20C
:1024F400A3F804146378002B40F0EA80B5F8503058
:102504009BB22B44217803EB0113002A40F0C580D1
:10251400B3F80C2492B222F4F84292B2A3F80C2439
:10252400B3F80C246FEA42426FEA524292B2A3F823
:102534000C24B2E4CBB9B0F850309BB203440A780F
:1025440003EB02130A6972BBB3F8042492B222F4B7
:10255400F84292B2A3F80424B3F804246FEA424286
:102564006FEA524292B2A3F804246378002B4CD150
:10257400B5F850309BB22B44227803EB0213226946
:1025840052BBB3F80C2492B222F4F84292B2A3F8EC
:102594000C24B3F80C246FEA42426FEA524292B21E
:1025A400A3F80C2433E03E2A09D8510812F0010F95
:1025B40000D001318A0292B2A3F80424D5E751096C
:1025C40012F01F0F00D101396FEAC1626FEA524263
:1025D40092B2A3F80424C8E73E2A09D8510812F09D
:1025E400010F00D001318A0292B2A3F80C240EE04C
:1025F400510912F01F0F00D101396FEAC1626FEA6D
:10260400524292B2A3F80C2401E0012B1DD0E369DD
:10261400002B3FF442AC227835F8221044F24003F8
:1026240003EA01008B4302D000287FF436AC35F86E
:1026340022309BB223F4E04323F0700343F40043BD
:1026440043F0C00325F8223027E4B5F850309BB29C
:102654002B44227803EB0213228AA3F80C24D6E736
:102664000022A2610A4629E73E2A09D8510812F03D
:10267400010F00D00131890289B2A3F8041439E7AB
:10268400510912F01F0F00D101396FEAC1616FEADD
:10269400514189B2A3F804142CE73E2A0AD8510800
:1026A40012F0010F00D001318A0292B2A3F80C2477
:1026B400FFF7F3BB510912F01F0F00D101396FEA84
:1026C400C1626FEA524292B2A3F80C24FFF7E5BB51
:1026D400012B7FF4E2ABB5F850309BB22B44217848
:1026E40003EB011392B2A3F80C24FFF7D6BB01202D
:1026F400FFF7E4BB10B45C0800EB420000F5806017
:1027040007E030F8042B0A70C2F307224A70023142
:10271400013C002CF5D113F0010F01D003880B709C
:1027240010BC704710B504460E4B1A784FF47A73F8
:10273400B3FBF2F30C4A1068B0FBF3F000F054FD65
:1027440068B90F2C01D901200AE0002221464FF07C
:10275400FF3000F02BFD054B1C60002000E0012041
:1027640010BD00BF5000002058000020540000207D
:1027740008B5074A136843F010031360032000F000
:1027840003FD0F20FFF7CEFFFDF70EFE002008BD6E
:1027940000200240034A1168034B1B780B4413606A
:1027A400704700BF5C11002050000020014B1868E6
:1027B400704700BF5C11002082B0084B1B68084AB8
:1027C400A2FB03235B0A00FB03F3019300BF019BFD
:1027D4005A1E0192002BF9D102B070475800002014
:1027E400D34D6210002800F0F18170B582B0044628
:1027F400036813F0010F2CD0994B5B6803F00C03B2
:10280400042B1DD0964B5B6803F00C03082B12D0ED
:102814006368B3F5803F41D0002B55D103F1804369
:1028240003F504331A6822F480321A601A6822F419
:1028340080221A6037E08A4B5B6813F4803FE7D04C
:10284400874B1B6813F4003F03D06368002B00F030
:10285400BF81236813F0020F75D0814B5B6813F0BE
:102864000C0F5FD07E4B5B6803F00C03082B54D035
:102874002369002B00F08A807A4B01221A60FFF74B
:1028840095FF0546764B1B6813F0020F75D1FFF7D1
:102894008DFF401B0228F5D903209EE1704A13687E
:1028A40043F480331360636843B3FFF77FFF054647
:1028B4006B4B1B6813F4003FCBD1FFF777FF401B32
:1028C4006428F5D9032088E1B3F5A02F09D0644B1F
:1028D4001A6822F480321A601A6822F480221A607C
:1028E400E1E703F18043A3F53C331A6842F4802204
:1028F4001A601A6842F480321A60D4E7FFF756FF70
:102904000546574B1B6813F4003FA2D0FFF74EFF58
:10291400401B6428F5D903205FE1514B5B6813F435
:10292400803FA5D14E4B1B6813F0020F03D02369DF
:10293400012B40F04F814A4A136823F0F803616980
:1029440043EAC1031360236813F0080F33D0A3696B
:10295400002B5CD0434B0122C3F88024FFF726FFF1
:1029640005463F4B5B6A13F0020F21D1FFF71EFFB0
:10297400401B0228F5D903202FE1394A136823F0BC
:10298400F803616943EAC1031360DCE7354B0022B5
:102994001A60FFF70BFF0546314B1B6813F0020F5B
:1029A400D1D0FFF703FF401B0228F5D9032014E11F
:1029B4000120FFF701FF236813F0040F00F0968055
:1029C400274BDB6913F0805F34D1254BDA6942F081
:1029D4008052DA61DB6903F080530193019B012586
:1029E400214B1B6813F4807F26D0E368012B3DD074
:1029F400002B53D103F1804303F504331A6A22F008
:102A040001021A621A6A22F004021A6233E0154BB8
:102A14000022C3F88024FFF7C9FE0546104B5B6A09
:102A240013F0020FC7D0FFF7C1FE401B0228F5D9EF
:102A34000320D2E00025D3E70B4A136843F48073E4
:102A44001360FFF7B3FE0646074B1B6813F4807F41
:102A5400CBD1FFF7ABFE801B6428F5D90320BCE083
:102A64000010024000004242007000405F4A136AB6
:102A740043F001031362E36833B3FFF797FE06469E
:102A84005A4B1B6A13F0020F2FD1FFF78FFE801BE6
:102A940041F288339842F3D903209EE0052B09D0F4
:102AA400524B1A6A22F001021A621A6A22F00402D4
:102AB4001A62E0E74D4B1A6A42F004021A621A6A7B
:102AC40042F001021A62D6E7FFF770FE0646474B52
:102AD4001B6A13F0020F08D0FFF768FE801B41F257
:102AE40088339842F3D9032077E0E5B9E369002BF2
:102AF40072D03E4A526802F00C02082A56D0022BC9
:102B040017D03B4B00221A66FFF750FE0446374BA2
:102B14001B6813F0007F47D0FFF748FE001B022814
:102B2400F5D9032059E0314AD36923F08053D361A6
:102B3400DCE72F4B00221A66FFF738FE05462B4BC5
:102B44001B6813F0007F06D0FFF730FE401B0228FD
:102B5400F5D9032041E0236AB3F5803F1AD0234915
:102B64004B6823F47413226A606A024313434B6074
:102B74001F4B01221A66FFF719FE04461B4B1B6804
:102B840013F0007F0ED1FFF711FE001B0228F5D9C8
:102B9400032022E0154A536823F40033A1680B4351
:102BA4005360DCE7002018E0002016E0012B16D06B
:102BB4000E4B5B6803F48031226A914211D103F415
:102BC4007013626A93420ED1002006E00120704720
:102BD400012002E0012000E0002002B070BD0120CD
:102BE400FBE70120F9E70120F7E700BF00100240EE
:102BF4000000424286B0174B0FCB0DF1180C0CE9C4
:102C04000F0040F20123ADF80430134B5B6803F06E
:102C14000C02082A02D0114806B07047C3F383425D
:102C240018326A4412F8100C13F4803F0DD00A4B8A
:102C34005B68C3F3404318336B4413F8143C074AEE
:102C440002FB00F0B0FBF3F0E6E7054B03FB00F0FA
:102C5400E2E700BF644B00080010024000127A0053
:102C640000093D00002800F0A08070B50D46044620
:102C7400524B1B6803F007038B420BD24F4A136875
:102C840023F007030B431360136803F007038B421D
:102C940040F08D80236813F0020F17D013F0040F57
:102CA40004D0474A536843F4E0635360236813F045
:102CB400080F04D0424A536843F460535360404AB7
:102CC400536823F0F003A1680B435360236813F0A7
:102CD400010F31D06368012B20D0022B25D0384A54
:102CE400126812F0020F64D035494A6822F00302D8
:102CF40013434B60FFF75AFD0646314B5B6803F004
:102D04000C036268B3EB820F16D0FFF74FFD801BF4
:102D140041F288339842F0D9032045E0284A1268EA
:102D240012F4003FE0D101203EE0254A126812F07F
:102D3400007FD9D1012037E0204B1B6803F0070343
:102D4400AB420AD91D4A136823F007032B431360CF
:102D5400136803F00703AB422DD1236813F0040F6B
:102D640006D0174A536823F4E063E1680B435360C9
:102D7400236813F0080F07D0114A536823F46053F3
:102D8400216943EAC1035360FFF734FF0C4B5B68CE
:102D9400C3F303130B4AD35CD8400B4B18600B4BA3
:102DA4001868FFF7BFFC002070BD012070470120A8
:102DB400FAE70120F8E70120F6E700BF002002400F
:102DC40000100240784B00085800002054000020F6
:102DD40070B582B00446036813F0010F36D03F4B40
:102DE400DB6913F0805F49D13C4BDA6942F08052D1
:102DF400DA61DB6903F080530193019B0125384BB1
:102E04001B6813F4807F3BD0344B1B6A13F440736C
:102E140013D0626802F440729A420ED02F4A136AA9
:102E240023F440702F490126C1F840640026C1F8FC
:102E34004064106213F0010F36D1284A136A23F458
:102E4400407361680B431362002D3ED1236813F075
:102E5400020F06D0214A536823F44043A1680B4370
:102E64005360236813F0100F34D01C4A536823F4C2
:102E7400800361690B43536000202CE00025BEE70A
:102E8400174A136843F480731360FFF78FFC0646F8
:102E9400134B1B6813F4807FB6D1FFF787FC801BAC
:102EA4006428F5D9032016E0FFF780FC06460B4B97
:102EB4001B6A13F0020FC0D1FFF778FC801B41F2AC
:102EC40088339842F3D9032005E0D36923F0805373
:102ED400D361BBE7002002B070BD00BF0010024008
:102EE400007000400000424270B582B00024A44645
:102EF400ACE0854DAB4210D007D9844DAB420CD029
:102F040005F58035AB4208D013E0A5F58015AB423A
:102F140003D005F57025AB4207D18B68002B5FD039
:102F2400012B58D04261082403E0A5F58015AB427B
:102F3400F3D0BEF1FF0F55D806464FEA8C02336832
:102F44000F25954023EA050304FA02F21343336084
:102F54004B6813F0805F77D06D4B9A6942F00102A1
:102F64009A619B6903F001030193019B4FEA9C0260
:102F7400951C684B53F825600CF00305AD000F2336
:102F8400AB4026EA0306644B984232D003F58063D3
:102F9400984200F0978003F58063984200F0948093
:102FA40003F58063984200F0918003F580639842B2
:102FB40000F08E8003F58063984218D0062319E050
:102FC400CC68B6E7CC680434B3E7CC680834B0E71F
:102FD400CC680C34ADE702610824AAE70024A8E712
:102FE4000424A6E7061DACF108029200A7E7052316
:102FF40000E00023AB4033430232464D45F8223013
:103004004B6813F4803F65D0444A136843EA0E03C7
:1030140013604B6813F4003F62D0404A536843EA9C
:103024000E0353604B6813F4801F5FD03B4A9368D0
:1030340043EA0E0393604B6813F4001F5CD0374AD5
:10304400D36843EA0E03D3600CF1010C0B6833FA26
:103054000CF257D0012202FA0CF203EA020E32EA11
:103064000303F1D14B68122B3FF643AF122B3FF60B
:1030740060AF01A555F823F01F2F0008C52F0008E5
:10308400CF2F0008E12F0008372F0008372F000842
:10309400372F0008372F0008372F0008372F000874
:1030A400372F0008372F0008372F0008372F000864
:1030B400372F0008372F0008372F0008C92F0008C2
:1030C400D52F0008012395E7022393E7032391E713
:1030D40004238FE7114A136823EA0E03136098E769
:1030E4000E4A536823EA0E0353609BE70B4A936826
:1030F40023EA0E0393609EE7084AD36823EA0E038B
:10310400D360A1E702B070BD0000221000003110AE
:10311400001002400000014000080140000401408A
:10312400002808DB0901C9B200F1604000F56140E4
:1031340080F80013704700F00F000901C9B2014B79
:103144001954704714ED00E000B500F00700C0F119
:10315400070CBCF1040F28BF4FF0040C031D062B11
:103164000FD9C31E4FF0FF3E0EFA0CF021EA000106
:1031740099400EFA03FE22EA0E0241EA02005DF8CB
:1031840004FB0023EEE70000074AD36823F4E0635E
:103194001B041B0C000200F4E060034343F0BF6314
:1031A40043F40033D360704700ED00E010B50446EB
:1031B400054BD868C0F30220FFF7C6FF014620463E
:1031C400FFF7AEFF10BD00BF00ED00E0002807DBF5
:1031D40000F01F02400901239340024A42F82030C4
:1031E400704700BF00E100E00138B0F1807F0BD2EE
:1031F4004FF0E0235861054AF02182F823100020A3
:10320400986107221A6170470120704700ED00E0C1
:10321400044B0022DA61044A136943F00103136189
:10322400018070476011002000200240194BDB68C8
:1032340013F0100305D0184AD36943F00203D36195
:103244001023144AD26812F0040F06D01249CA6936
:1032540042F00102CA6143F004030E4AD26912F03B
:10326400010F09D00C49CA6942F00402CA61094934
:10327400CA6922F00102CA6140F20112934202D0EB
:10328400044AD3607047034AD36923F00103D3612E
:10329400704700BF00200240601100200A4B1B69E8
:1032A40013F0800F0BD0084B084A5A6002F18832A1
:1032B4005A601B6913F0800F03D10020704700206F
:1032C40070470120704700BF00200240230167457A
:1032D400034A136943F0800313610020704700BF61
:1032E4000020024038B50446FFF760FA0546164B45
:1032F400DB6813F0010F0AD0B4F1FF3FF7D024B11B
:10330400FFF754FA401BA042F1D903201BE00E4BF7
:10331400DB6813F0200F02D00B4B2022DA600A4B3B
:10332400DB6813F0100F0BD1074BDB6913F0010FAF
:1033340006D1054BDB6813F0040F01D1002002E035
:10334400FFF774FF012038BD002002402DE9F84347
:103354001E46244B1B7E012B41D004460F4690464B
:10336400204B01221A764CF25030FFF7BBFF034684
:1033740078BB012C08D0022C03D04FF004091C4662
:1033840007E04FF00209FAE74FF00109F7E70134CB
:10339400E4B24C451DD22101C1F12002A1F1200368
:1033A40028FA01F106FA02F2114326FA03F319434B
:1033B40089B207EB4400FFF72BFF4CF25030FFF7C4
:1033C40091FF094B1D6925F001051D610346002885
:1033D400DDD0044A002111761846BDE8F8830223A3
:1033E400FAE700BF6011002000200240064B0022D3
:1033F400DA61064B1A6942F004021A611A6942F052
:1034040040021A61704700BF601100200020024092
:10341400064B0022DA61064B1A6942F002021A6175
:1034240058611A6942F040021A6170476011002025
:1034340000200240264B1B7E012B46D070B505466A
:103444000E46234B01221A760368022B20D04CF23D
:103454005030FFF747FF90BB4FF0FF333360AC6849
:103464000121EA68AB6803EBC223A34228D92046B2
:10347400FFF7CEFF4CF25030FFF734FF154A1369C3
:1034840023F0020313610146B8B904F50064E8E7C8
:103494004CF25030FFF726FF08B1012110E0012063
:1034A400FFF7A4FF4CF25030FFF71CFF0146094A16
:1034B400136923F00403136102E0346000E0012186
:1034C400034B00221A76084670BD02210846704755
:1034D4006011002000200240704798B108B50346EF
:1034E400D0F8B40210B10020C3F8B40209B1C3F893
:1034F400B012012183F89C121A701846FDF7B2F835
:10350400002008BD0220704719B1C0F8B412002091
:1035140070470220704708B5FDF7DEF8002008BDAB
:1035240008B5D0F8B4322BB11B68984700B908BD70
:103534000220FCE70220FAE708B5D0F8B4325B6851
:103544009847002008BD38B5044600F52A7528467A
:1035540000F035F90123C4F89432B4F8AE32C4F85B
:10356400983294F8A81201F01F03012B0ED0022BFD
:1035740011D02BB101F080012046FDF7D0F803E013
:103584002946204600F0CAFA002038BD29462046C4
:1035940000F0F8FAF8E72946204600F023FBF3E7A9
:1035A40038B504460D4691BB1346D0F89422032A3D
:1035B40003D0052A24D0084633E0D0F86011D0F8AF
:1035C400642191420DD9891AC0F860118A4206D942
:1035D4008AB21946204600F028FC284621E092B21F
:1035E400F7E7D0F8B4321B691BB190F89C22032A88
:1035F40004D0204600F021FC284612E09847F8E762
:103604000021C0F89412FDF78AF8284609E0D0F8A2
:10361400B4329B6933B190F89C22032A04D19847B1
:10362400002038BD0220FCE70220FAE738B5044642
:103634000D46002953D11346D0F89422022A0CD007
:10364400042A00D01AB980212046FDF768F894F8BE
:10365400A032012B3ED0284638BD026A416A8A4214
:103664001BD8C269B2FBF1F301FB13232BB99142BE
:1036740003D8D0F898329A421CD3D4F8B432DB6819
:103684001BB194F89C22032A21D080212046FDF707
:1036940046F8204600F0DCFBD9E7521A026292B2E7
:1036A400194600F0BAFB00231A4619462046FDF7D6
:1036B4006DF8CCE70022114600F0AFFB0021C4F8FE
:1036C40098120B460A462046FDF760F8BFE72046ED
:1036D4009847DAE7002384F8A0322846BCE7D0F8FC
:1036E400B4325B6933B190F89C22032A04D1984721
:1036F4000020B1E70220AFE70220ADE770B5044631
:10370400402300221146FCF7EFFF0125C4F858516D
:103714004026C4F864613346002280212046FCF729
:10372400E3FFA561666284F89C520023C4F89432D6
:103734006360C4F8A432D4F8B8322BB1D4F8B432EC
:103744005B68002120469847002070BD017400206A
:10375400704790F89C3280F89D32042380F89C32A4
:103764000020704790F89C32042B01D00020704751
:1037740090F89D3280F89C32F8E708B590F89C32B6
:10378400032B01D0002008BDD0F8B432DB69002B34
:10379400F8D09847F6E70346002002E00130C0B2B3
:1037A40001331A78002AF9D1704708B54B88012BE8
:1037B40000D008BDC0F8A43200F03FFBF9E70B7855
:1037C40003704B7843708B78CA7803EB02234380F1
:1037D4000B794A7903EB022383808B79CA7903EB53
:1037E4000223C380704710B504468021FCF797FF7D
:1037F40000212046FCF793FF10BD30B583B0054689
:103804000C460023ADF806304A88130A013B062B08
:1038140000F2A480DFE803F004182CA2A28693002F
:10382400D0F8B0321B680DF10601007C9847BDF852
:1038340006201AB1E388002B40F09480E388002B23
:1038440000F09A8003B030BD037C43B9D0F8B432A1
:103854009B6A0DF10600984702234370E7E7D0F80E
:10386400B432DB6A0DF10600984702234370DEE7A9
:10387400D2B2052A52D8DFE802F003101D2A3744D9
:10388400D0F8B0325B6823B10DF10601007C984793
:10389400CDE72146FFF7A7FFD4E7D0F8B0329B6805
:1038A40023B10DF10601007C9847C0E72146FFF7DC
:1038B4009AFFC7E7D0F8B032DB6823B10DF10601F7
:1038C400007C9847B3E72146FFF78DFFBAE7D0F8AD
:1038D400B0321B6923B10DF10601007C9847A6E7BD
:1038E4002146FFF780FFADE7D0F8B0325B6923B122
:1038F4000DF10601007C984799E72146FFF773FF15
:10390400A0E7D0F8B0329B6923B10DF10601007C29
:1039140098478CE72146FFF766FF93E72146FFF7B8
:1039240062FF8FE7037C33B9D0F8B4325B6B0DF1DF
:10393400060098477BE72146FFF755FF82E7037CA3
:1039440043B9D0F8B4321B6B0DF106009847072336
:1039540043706CE72146FFF746FF73E72146FFF704
:1039640042FF6FE79A4228BF1A46ADF80620014687
:10397400284600F045FA61E7284600F05EFA61E760
:1039840038B504468B88F3B9CB88E3B94B887F2BD1
:1039940019D803F07F0590F89C32032B0CD080F8E3
:1039A4009E522946FCF7E2FE204600F046FA35B165
:1039B400022384F89C3209E0FFF715FF06E0012397
:1039C40084F89C3202E02046FFF70DFF38BD00006A
:1039D40038B504460D468978284B197001290ED84C
:1039E40090F89C32022B0ED0032B21D02946FFF7EE
:1039F400FAFE224B19782046FFF79EFD02E0294685
:103A0400FFF7F1FE38BD81B14160032380F89C3299
:103A1400FFF786FD022803D0204600F00EFAF1E7F6
:103A240029462046FFF7DFFEECE700F006FAE9E757
:103A340089B1436899421DD0D9B2FFF77DFD0F4B80
:103A4400197861602046FFF76BFD02280DD02046EF
:103A540000F0F3F9D6E7022380F89C324160FFF7C7
:103A64006BFD204600F0E9F9CCE729462046FFF734
:103A7400BAFEC7E700F0E1F9C4E700BF80110020F7
:103A840008B5CB88012B0AD190F89C32022B09D9B6
:103A9400032B09D10122011D00F0B2F901E0FFF767
:103AA400A2FE08BD5BB213B9FFF79DFEF9E701461C
:103AB400002341F8083F012200F0A2F9F1E708B51C
:103AC40090F89C32013B022B12D8CB88022B0CD1EC
:103AD4000123C360D0F8A4320BB10323C3600222D4
:103AE40000F10C0100F08CF908BDFFF77CFEFBE748
:103AF400FFF779FEF8E708B590F89C32013B022BFA
:103B040009D84B88012B00D008BD0023C0F8A4328B
:103B140000F093F9F8E7FFF766FEF5E708B50B78D0
:103B240003F06003202B05D0402B03D043B1FFF7F3
:103B34005AFE03E0D0F8B4329B689847002008BDD1
:103B44004B78092B1BD8DFE803F011171A141A0855
:103B5400051A0E0BFFF751FEF0E7FFF711FFEDE733
:103B6400FFF736FFEAE7FFF78BFFE7E7FFF7A7FF6B
:103B7400E4E7FFF71AFEE1E7FFF7BDFFDEE7FFF733
:103B840032FEDBE738B505460C460B7803F06003DC
:103B9400202B06D0402B04D01BB1FFF724FE0020BD
:103BA40038BD95F89C32013B022B16D82379012BA2
:103BB4000ED8D5F8B4329B68214628469847E38846
:103BC400002BECD10028EAD1284600F036F9E6E7CC
:103BD40021462846FFF707FEE1E721462846FFF77E
:103BE40002FEDCE770B505468B880C7804F06004AF
:103BF400202C07D0DAB2402C04D05CB1FFF7F3FDDF
:103C0400002405E0D5F8B4329B6828469847002480
:103C1400204670BD202C09D04E78012E33D0032EBF
:103C24000AD0002E55D0FFF7DEFDF1E7D0F8B4320C
:103C34009B6898470446EBE790F89C32022B04D02B
:103C4400032B11D0FFF7CFFDE2E70AB1802A03D19D
:103C54002846FFF7C8FDDBE71146FCF760FD80212D
:103C64002846FCF75CFDD3E74B8823B91AB1802AB8
:103C740001D0CB881BB1284600F0DFF8C8E7114615
:103C8400FCF74DFDF7E790F89C32022B04D0032B90
:103C940011D0FFF7A8FDBBE70AB1802A03D128465B
:103CA400FFF7A1FDB4E71146FCF739FD8021284652
:103CB400FCF735FDACE74B88002BA9D112F07F0F40
:103CC40003D1284600F0B9F8A2E71146FCF72FFD0E
:103CD400F7E790F89C02022806D0032829D028464A
:103CE400FFF781FD344693E70AB1802A13D113F01C
:103CF400800F15D102F07F0202EB8202910001F5E0
:103D0400A8712944043100230B600222284600F0E4
:103D140077F834467CE72846FFF765FD344677E7B5
:103D240002F07F0202EB8202910010312944043137
:103D3400E9E75BB2002B1FDB02F00F0000EB800011
:103D440005EB8000D0F8580120B3002B27DB02F0EC
:103D54007F0303EB83039C0004F5A8742C44043410
:103D64000AB1802A24D10023236002222146284656
:103D740000F046F834464BE702F00F0000EB8000F9
:103D840005EB800080690028DFD12846FFF72BFD72
:103D940034463DE72846FFF726FD344638E702F06F
:103DA4007F0303EB83039C0010342C440434D7E7D3
:103DB40011462846FCF7C3FC10B101232360D4E765
:103DC40000232360D1E7D0B170B50D4616460446F2
:103DD400FFF7E1FC431C5B009BB233802B70032391
:103DE4006B70022307E001345A1CD2B2E854023348
:103DF400DBB20021A95420780028F4D170BD7047AB
:103E040008B513460222C0F89422C36103620A462D
:103E14000021FCF7B3FC002008BD08B513460A4690
:103E24000021FCF7ABFC002008BD08B513460A4688
:103E34000021FCF7ABFC002008BD08B50423C0F842
:103E4400943200231A461946FCF798FC002008BD5A
:103E540008B50523C0F8943200231A461946FCF726
:103E640095FC002008BD0020704780230B604FF4B0
:103E740000631380002070470020704700207047C3
:103E84000020704708B102207047F0B587B00F4694
:103E940015461E46FFF702FA00240294059605F51E
:103EA40080358035ED020495019401A902A8FFF73D
:103EB400C1FA07E03B19D3E9002329190320FFF7CE
:103EC40045FA0834B4EBC62FF4D3FFF701FA002007
:103ED40007B0F0BD08B10220704708B58E4602F560
:103EE40080318031DA02C902704600F0F5FD00200D
:103EF40008BD00002023038000487047C80000204C
:103F04002023038000487047A8000020202303805A
:103F140000487047880000200A2303800048704747
:103F24007C00002038B50446037CE3B94FF40073E9
:103F340002220121FCF7D8FB0125C4F86C514FF48F
:103F44000073022281212046FCF7CEFBE56240F695
:103F54006C00FCF729FCC4F8B802A0B1204600F0BC
:103F640042F9002038BD402302220121FCF7BCFBAA
:103F74000125C4F86C514023022281212046FCF71C
:103F8400B3FBE562E3E70220ECE738B50446012120
:103F9400FCF7B5FB0025C4F86C5181212046FCF7E1
:103FA400AEFBE562204600F04AF9D4F8B80218B135
:103FB400FCF7FEFBC4F8B852002038BD2DE9F041EF
:103FC40082B006460C46D0F8B8720023ADF806302D
:103FD4000B7813F0600536D0202D40F0B4804A7879
:103FE400FE2A05D0FF2A1DD0FFF7FDFB0225ADE018
:103FF4004A8812B9CA88012A05D021463046FFF7FB
:10400400F2FB0225A2E013F0800FF6D0D0F8BC3208
:104014009B6998473860012239463046FFF7F0FE25
:10402400002593E04A8842B9CA8832B913F0800F58
:1040340003D100F0F7F8002588E021463046FFF769
:10404400D2FB022582E091F80180B8F10B0F76D8FB
:10405400DFE808F0062D757575757575757515228B
:1040640090F89C32032B03D0FFF7BDFB02256DE0D3
:1040740002220DF10601FFF7C3FE454666E090F803
:104084009C32032B03D0FFF7AEFB02255EE0012236
:10409400391DFFF7B5FE59E090F89C32032B02D18D
:1040A4008B787B6052E0FFF79EFB02254EE0097996
:1040B400FCF72DFB21793046FCF721FBA38894F90A
:1040C4000420002A19DB03F00F0303EB830306EB40
:1040D40083030022C3F85821337C4BBB4FF4007395
:1040E400022201213046FCF7FFFA0123C6F86C31A5
:1040F4002179304600F04FF928E003F00F0303EB79
:10410400830306EB830300229A61337C4BB94FF49B
:104114000073022281213046FCF7E6FA0123F362A0
:10412400E6E74023022281213046FCF7DDFAF5E779
:104134004023022201213046FCF7D6FAD5E7FFF7E7
:1041440052FB022502E0FFF74EFB0225284602B08F
:10415400BDE8F08108B500F093F8002008BD08B56B
:1041640000F000F9002008BD09B1C0F8BC1200201D
:10417400704710B51346D0F8B842D4F814289C46BA
:104184009A4200D293B2D4F83428A2EB0C02C4F8B9
:104194003428002284F83828042222720A46812115
:1041A400FCF7ECFA10BD38B50446D0F8B85295F8CF
:1041B400183823B9D5F814380BB16B7A3BB1812187
:1041C4002046FCF7ACFA6B7A022B04D038BD0121EF
:1041D400FCF7A5FAF3E71F2305F60C02012120469C
:1041E400FCF7D4FAF2E738B50446D0F8B852002008
:1041F4002872687285F85D0885F85C08D4F8BC32CA
:104204001B68984701212046FCF781FA812120464A
:10421400FCF77DFA1F2305F60C0201212046FCF76A
:10422400B5FA38BD08B5D0F8B822002313720121BD
:1042340051721F2302F60C02FCF7A8FA08BDD0F84D
:10424400B83200221A72704738B50546D0F8B84221
:104254000A4BC4F82C3884F83818002323720D2331
:1042640004F62C028121FCF789FA1F2304F60C02C0
:1042740001212846FCF78AFA38BD00BF5553425342
:1042840010B50446D0F8B8120B7A022B08D006D326
:10429400033BDBB2012B02D80021FFF7D5FF10BD91
:1042A40001F61B0291F8191800F060FB0028F6DAF9
:1042B40001212046FFF7C8FFF1E7000038B50546A5
:1042C400D0F8B842D4F81038C4F83038D4F81438D8
:1042D400C4F834380121FCF761FA1F2804D1D4F85A
:1042E4000C281F4B9A420CD02023052294F819184D
:1042F400284600F0EFF8022363722846FFF753FFC5
:1043040038BD94F819180129EED894F81A38002BFE
:10431400EAD0102BE8D804F61B02284600F026FB4E
:1043240000280CDB237A013BDBB2022BE8D962893B
:104334008AB104F10C012846FFF71BFFE0E7237A5A
:10434400052B03D02846FFF72EFFD9E70121284685
:10435400FFF77AFFD4E700212846FFF775FFCFE780
:104364005553424310B50446D0F8B8120B7A13B132
:10437400012B03D010BDFFF7A1FFFBE701F61B02E1
:1043840091F8191800F0F2FA0028F3DA0121204616
:10439400FFF75AFFEEE710B5D0F8B842637A022B64
:1043A40008D011F0800F04D0012B02D00121FFF7B7
:1043B4004BFF10BD8121FCF7B2F900236372F8E7CB
:1043C40010B4D0F8B842537813F0010F0DD007237E
:1043D400638105E0013B9BB20F4AD15CE218117383
:1043E400002BF7D1002010BC7047D0F8BC32D8693C
:1043F40001EBC10100EB81000179053113798B4296
:1044040000D90B46638104E0013B9BB2C15CE21816
:104414001173002BF8D1E5E7BC4B0008D0F8B802C3
:104424000823438105E0013B9BB2044AD15CC218D6
:104434001173002BF7D10020704700BFB44B000864
:10444400D0F8B8020823438105E0013B9BB2044A3B
:10445400D15CC2181173002BF7D10020704700BF44
:10446400AC4B000810B4D0F8B842002304E0E118C3
:10447400002008730133DBB2112BF8D970232373A6
:104484000C23E37494F85C3894F85D188B420FD0D5
:1044940003F2071104EBC1010879A073487A20766E
:1044A400097A61760133DBB284F85C38042B08D0D6
:1044B400122363811379122B00D86381002010BC6E
:1044C4007047002384F85C38F2E7D0F8B832002053
:1044D40058817047D0F8B80290F85D3803F207119C
:1044E40000EBC1010A7100220A720133DBB280F8C9
:1044F4005D38042B00D0704780F85D28FBE770B569
:104504000446D0F8B862D6F814384BB90D46D0F842
:10451400BC329B680846984758B90023738170BD24
:104524002023052296F81918FFF7D4FF4FF0FF3027
:10453400F5E73A23022229462046FFF7CBFF05235D
:1045440033724FF0FF30EAE770B582B005460E468D
:10455400D0F8B842002306E0E2184FF0000C82F8CD
:104564000CC001339BB20B2BF6D9D5F8BC325B6877
:104574000DF10602694630469847D0B90823E37323
:10458400009A531E190E2174C3F307416174C3F3D7
:104594000723A374013AE27402232375BDF806309D
:1045A400002262751A0AA275E3750C23638102B0B6
:1045B40070BD3A23022231462846FFF78BFF4FF0A5
:1045C400FF30F4E770B505460E46D0F8B842D0F88F
:1045D400BC325B6804F65E0204F506613046984717
:1045E400B8B9D4F86028531E190E2173C3F30741D8
:1045F4006173C3F30723A373013AE273B4F85E381B
:104604000022227462741A0AA274E3740823638178
:1046140070BD3A23022231462846FFF75BFF4FF074
:10462400FF30F5E708B51A44D0F8B832D3F860384B
:104634009A4201D8002008BD21230522FFF74AFF32
:104644004FF0FF30F7E72DE9F84306460F46D0F860
:10465400B842D4F86858B4F85E3803FB05F5B5F5EC
:10466400006F28BF4FF40065D0F8BC22D2F8109038
:1046740004F10C08B5FBF3F39BB2D4F8642841466B
:104684003846C84700281DDBABB24246812130467C
:10469400FCF774F8D4F86438B4F85E28B5FBF2F289
:1046A4001344C4F86438D4F868389B1AC4F86838DA
:1046B400D4F83428521BC4F8342863B90323237272
:1046C400002009E01123042239463046FFF702FF97
:1046D4004FF0FF3000E00020BDE8F883F8B506464F
:1046E4000F46D0F8B842237A73BB154694F91838AC
:1046F400002B31DAD0F8BC329B6808469847A0BB3F
:10470400AA78EB781B0443EA02632A7943EA02237A
:104714006A791A43C4F86428E9792B7A43EA0123B5
:10472400C4F8683839463046FFF77CFF00282FDB91
:1047340002232372D4F81428D4F86838B4F85E1825
:1047440001FB03F39A4219D14FF4006363813946A4
:104754003046FFF778FFF8BD2023052294F8191896
:10476400FFF7B8FE4FF0FF30F5E73A23022239464F
:104774003046FFF7AFFE4FF0FF30ECE72023052271
:1047840094F819183046FFF7A5FE4FF0FF30E2E722
:104794004FF0FF30DFE72DE9F84306468846D0F8AE
:1047A400B842D4F86858B4F85E3803FB05F5B5F59B
:1047B400006F28BF4FF40065D0F8BC22D2F81490E3
:1047C40004F10C07B5FBF3F39BB2D4F86428394623
:1047D4004046C84700281ADBD4F86428B4F85E3889
:1047E400B5FBF3F10A44C4F86428D4F86828521AD3
:1047F400C4F86828D4F83418491BC4F834187AB9B2
:1048040000213046FFF720FD0020BDE8F883032394
:10481400042241463046FFF75DFE4FF0FF30F4E7D7
:1048240002FB03F3B3F5006F28BF4FF400639BB2A0
:104834003A4601213046FBF7A9FF0020E5E72DE9C0
:10484400F04106460F46D0F8B842237A002B6AD1CD
:10485400154694F91838002B40DBD0F8BC329B681D
:1048640008469847002842D1D6F8BC32DB6838465F
:1048740098478046002843D1AA78EB781B0443EA82
:1048840002632A7943EA02236A791A43C4F8642842
:10489400E9792B7A43EA0123C4F86838394630466B
:1048A400FFF7C0FE002842DBD4F86838B4F85E286D
:1048B40002FB03F3D4F814289A422AD1B3F5006F0B
:1048C40028BF4FF40063012121729BB204F10C0252
:1048D4003046FBF75BFF4046BDE8F081202305220C
:1048E40094F81918FFF7F6FD4FF0FF38F3E73A2371
:1048F400022239463046FFF7EDFD4FF0FF38EAE774
:104904002723022239463046FFF7E4FD4FF0FF38F3
:10491400E1E72023052294F819183046FFF7DAFD61
:104924004FF0FF38D7E7FFF736FF8046D3E74FF065
:10493400FF38D0E710B5D0F8B842537813F0020F1F
:104944000AD1D4F86838D4F86428FFF76BFE00283D
:1049540009DB0020608110BD24230522FFF7BAFD86
:104964004FF0FF30F7E74FF0FF30F4E708B5137866
:104974005A2B5FD8DFE803F02E5E5E325E5E5E5E29
:104984005E5E5E5E5E5E5E5E5E5E365E5E5E5E5E6B
:104994005E5E423A5E5E3E5E5E5E5E4A5E4E5E5EB7
:1049A400525E565E5E5E5E5A5E5E5E5E5E5E5E5E3B
:1049B4005E5E5E5E5E5E5E5E5E5E5E5E5E5E5E5E13
:1049C4005E5E5E5E5E5E5E5E5E5E5E5E5E5E5E5E03
:1049D4005E5E4600FFF793FD002008BDFFF742FD31
:1049E4000020FAE7FFF7ECFC0020F6E7FFF76DFD87
:1049F4000020F2E7FFF769FD0020EEE7FFF70EFD68
:104A04000020EAE7FFF71CFD0020E6E7FFF79CFD26
:104A14000020E2E7FFF7D6FD0020DEE7FFF75EFEA9
:104A24000020DAE7FFF70BFF0020D6E7FFF782FF4D
:104A34000020D2E720230522FFF74CFD4FF0FF3082
:104A4400CBE700000C480D490D4A002302E0D4587E
:104A5400C4500433C4188C42F9D30A4A0A4C0023C4
:104A640001E013600432A242FBD3FEF735FD00F0EF
:104A74000FF8FBF73FFC70470000002020010020E6
:104A8400CC4B00082001002084110020FEE7000028
:104A940070B500260C4D0D4C641BA410A64209D120
:104AA40000F030F800260A4D0A4C641BA410A642FC
:104AB40005D170BD55F8043B98470136EEE755F82B
:104AC400043B98470136F2E7C44B0008C44B000886
:104AD400C44B0008C84B00080A44914200F1FF335C
:104AE40000D1704710B511F8014B914203F8014F02
:104AF400F9D110BD03460244934200D1704703F834
:104B0400011BF9E7F8B500BFF8BC08BC9E46704726
:0C4B1400F8B500BFF8BC08BC9E46704716
:104B200053544D3332204D6173732053746F72614F
:104B30006765000053544D6963726F656C656374FB
:104B4000726F6E69637300004D534320436F6E664E
:104B5000696700004D534320496E74657266616356
:104B60006500000002030405060708090A0B0C0D86
:104B70000E0F1010000000000000000000000000F8
:104B80000102030406070809008002021F0000005A
:104B900053544D202020202050726F647563742080
:104BA0002020202020202020302E30310006000040
:104BB00000000000000000000000000000000003F2
:044BC00000808300EE
:044BC4004D02000896
:044BC80025020008BA
:104BCC001A030000000000000000000000000000BC
:104BDC0000000000000000000000000004030904B5
:104BEC00120100020000004084042A570002010256
:104BFC0003010000450400085104000815050008D5
:104C0C00F1040008DD040008310500085505000812
:104C1C0001000000100000000024F4006B3E0008AE
:104C2C006F3E00087D3E0008813E0008D93E00081A
:104C3C00893E0008853E0008884B00080A060002E1
:104C4C00000000400100000009072000010104C021
:104C5C0032090400000208065005070581024000D5
:104C6C00000705010240000009022000010104C0F8
:104C7C0032090400000208065005070581024000B5
:104C8C00000705010240000009022000010104C0D8
:104C9C0032090400000208065005070581020002D3
:104CAC000007050102000200293F00088F3F0008A1
:104CBC00C13F00080000000000000000594100083E
:104CCC00634100080000000000000000000000002C
:104CDC00F93E0008053F0008113F00081D3F000881
:0400000508004A495C
:00000001FF
