:020000040800F2
:10000000000001207D180008C5030008C703000890
:10001000C9030008CB030008CD030008000000005E
:10002000000000000000000000000000CF030008F6
:10003000D103000800000000D3030008D503000826
:10004000C5180008C5180008C5180008C51800081C
:10005000C5180008C5180008C5180008C51800080C
:10006000C5180008C5180008C5180008C5180008FC
:10007000C5180008C5180008C5180008C5180008EC
:10008000C5180008C5180008C5180008C5180008DC
:10009000C5180008C5180008C5180008C5180008CC
:1000A000C5180008C5180008C5180008C5180008BC
:1000B000C5180008C5180008C5180008C5180008AC
:1000C000C5180008C5180008C5180008C51800089C
:1000D000C5180008DD030008C5180008C518000889
:1000E000C5180008C5180008C5180008C51800087C
:1000F000C5180008C5180008C5180008C51800086C
:10010000C5180008C5180008C5180008C51800085B
:10011000C5180008C5180008C5180008C51800084B
:10012000C5180008C5180008C5180008C51800083B
:1001300000000000000000000000000000000000BF
:1001400000000000000000000000000000000000AF
:10015000000000000000000000000000000000009F
:10016000000000000000000000000000000000008F
:10017000000000000000000000000000000000007F
:10018000000000000000000000000000000000006F
:10019000000000000000000000000000000000005F
:1001A000000000000000000000000000000000004F
:1001B000000000000000000000000000000000003F
:1001C000000000000000000000000000000000002F
:1001D000000000000000000000000000000000001F
:0401E0005FF8E0F1F3
:1001E4000348044B834202D0034B03B118477047C2
:1001F4006800002068000020000000000548064B4D
:100204001B1AD90F01EBA301491002D0034B03B110
:1002140018477047680000206800002000000000B4
:1002240010B5064C237843B9FFF7DAFF044B13B13A
:100234000448AFF300800123237010BD6800002040
:10024400000000001829000808B5054B1BB105493A
:100254000548AFF30080BDE80840FFF7CFBF00BFFB
:10026400000000006C0000201829000872B6FEE7A8
:1002740000B591B02822002106A802F04DF9002310
:1002840001930293039304930593012206924FF47E
:10029400803307930A9202220D920E934FF4E013D7
:1002A4000F9306A800F026F980B90F2301930221C9
:1002B4000291002303934FF480620492059301A8F2
:1002C40000F058FB20B911B05DF804FBFFF7CEFF36
:1002D400FFF7CCFF08B500F0D3F8FFF7C9FF00F033
:1002E40075FF00F015F800F0ADFE2021064800F07F
:1002F4003FFD012000F090FF2021044800F038FD6C
:10030400012000F089FFF0E7000C014000180140D3
:100314002DE9F04188B000230493059306930793D5
:1003240003F1804303F504339A6942F040029A6171
:100334009A6902F040020092009A9A6942F010020F
:100344009A619A6902F010020192019A9A6942F044
:1003540004029A619A6902F004020292029A9A696A
:1003640042F008029A619B6903F008030393039B1C
:10037400DFF8448001222021404600F0F3FC0F4DB9
:1003840001222021284600F0EDFC202704970124B7
:10039400059406940326079604A9404600F0C6FB7C
:1003A400049705940694079604A9284600F0BEFB1A
:1003B40008B0BDE8F08100BF00180140000C014006
:1003C400FEE7FEE7FEE7FEE7FEE77047704770478B
:1003D40008B500F067F808BD08B5024801F00EF949
:1003E40008BD00BF8800002000B583B00F4B9A6998
:1003F40042F001029A619A6902F001020092009AA5
:10040400DA6942F08052DA61DB6903F080530193C8
:10041400019B052000F0C0FD054A536823F0E0630A
:1004240043F08073536003B05DF804FB0010024096
:100434000000014010B504460E4B1A784FF47A734D
:10044400B3FBF2F30C4A1068B0FBF3F000F0D4FDF8
:1004540068B90F2C01D901200AE0002221464FF08F
:10046400FF3000F0ABFD054B1C60002000E00120D4
:1004740010BD00BF00000020080000200400002080
:1004840008B5074A136843F010031360032000F013
:1004940083FD0020FFF7CEFFFFF7A6FF002008BD75
:1004A40000200240034A1168034B1B780B4413607D
:1004B400704700BF8400002000000020014B186832
:1004C400704700BF8400002082B0084B1B68084AB4
:1004D400A2FB03235B0A00FB03F3019300BF019B10
:1004E4005A1E0192002BF9D102B070470800002077
:1004F400D34D6210002800F0F18170B582B004463B
:10050400036813F0010F2CD0994B5B6803F00C03C4
:10051400042B1DD0964B5B6803F00C03082B12D000
:100524006368B3F5803F41D0002B55D103F180437C
:1005340003F504331A6822F480321A601A6822F42C
:1005440080221A6037E08A4B5B6813F4803FE7D05F
:10055400874B1B6813F4003F03D06368002B00F043
:10056400BF81236813F0020F75D0814B5B6813F0D1
:100574000C0F5FD07E4B5B6803F00C03082B54D048
:100584002369002B00F08A807A4B01221A60FFF75E
:1005940095FF0546764B1B6813F0020F75D1FFF7E4
:1005A4008DFF401B0228F5D903209EE1704A136891
:1005B40043F480331360636843B3FFF77FFF05465A
:1005C4006B4B1B6813F4003FCBD1FFF777FF401B45
:1005D4006428F5D9032088E1B3F5A02F09D0644B32
:1005E4001A6822F480321A601A6822F480221A608F
:1005F400E1E703F18043A3F53C331A6842F4802217
:100604001A601A6842F480321A60D4E7FFF756FF82
:100614000546574B1B6813F4003FA2D0FFF74EFF6B
:10062400401B6428F5D903205FE1514B5B6813F448
:10063400803FA5D14E4B1B6813F0020F03D02369F2
:10064400012B40F04F814A4A136823F0F803616993
:1006540043EAC1031360236813F0080F33D0A3697E
:10066400002B5CD0434B0122C3F88024FFF726FF04
:1006740005463F4B5B6A13F0020F21D1FFF71EFFC3
:10068400401B0228F5D903202FE1394A136823F0CF
:10069400F803616943EAC1031360DCE7354B0022C8
:1006A4001A60FFF70BFF0546314B1B6813F0020F6E
:1006B400D1D0FFF703FF401B0228F5D9032014E132
:1006C4000120FFF701FF236813F0040F00F0968068
:1006D400274BDB6913F0805F34D1254BDA6942F094
:1006E4008052DA61DB6903F080530193019B012599
:1006F400214B1B6813F4807F26D0E368012B3DD087
:10070400002B53D103F1804303F504331A6A22F01A
:1007140001021A621A6A22F004021A6233E0154BCB
:100724000022C3F88024FFF7C9FE0546104B5B6A1C
:1007340013F0020FC7D0FFF7C1FE401B0228F5D902
:100744000320D2E00025D3E70B4A136843F48073F7
:100754001360FFF7B3FE0646074B1B6813F4807F54
:10076400CBD1FFF7ABFE801B6428F5D90320BCE096
:100774000010024000004242007000405F4A136AC9
:1007840043F001031362E36833B3FFF797FE0646B1
:100794005A4B1B6A13F0020F2FD1FFF78FFE801BF9
:1007A40041F288339842F3D903209EE0052B09D007
:1007B400524B1A6A22F001021A621A6A22F00402E7
:1007C4001A62E0E74D4B1A6A42F004021A621A6A8E
:1007D40042F001021A62D6E7FFF770FE0646474B65
:1007E4001B6A13F0020F08D0FFF768FE801B41F26A
:1007F40088339842F3D9032077E0E5B9E369002B05
:1008040072D03E4A526802F00C02082A56D0022BDB
:1008140017D03B4B00221A66FFF750FE0446374BB5
:100824001B6813F0007F47D0FFF748FE001B022827
:10083400F5D9032059E0314AD36923F08053D361B9
:10084400DCE72F4B00221A66FFF738FE05462B4BD8
:100854001B6813F0007F06D0FFF730FE401B022810
:10086400F5D9032041E0236AB3F5803F1AD0234928
:100874004B6823F47413226A606A024313434B6087
:100884001F4B01221A66FFF719FE04461B4B1B6817
:1008940013F0007F0ED1FFF711FE001B0228F5D9DB
:1008A400032022E0154A536823F40033A1680B4364
:1008B4005360DCE7002018E0002016E0012B16D07E
:1008C4000E4B5B6803F48031226A914211D103F428
:1008D4007013626A93420ED1002006E00120704733
:1008E400012002E0012000E0002002B070BD0120E0
:1008F400FBE70120F9E70120F7E700BF0010024001
:100904000000424286B0174B0FCB0DF1180C0CE9D6
:100914000F0040F20123ADF80430134B5B6803F081
:100924000C02082A02D0114806B07047C3F3834270
:1009340018326A4412F8100C13F4803F0DD00A4B9D
:100944005B68C3F3404318336B4413F8143C074A01
:1009540002FB00F0B0FBF3F0E6E7054B03FB00F00D
:10096400E2E700BF302900080010024000127A00BC
:1009740000093D00002800F0A08070B50D46044633
:10098400524B1B6803F007038B420BD24F4A136888
:1009940023F007030B431360136803F007038B4230
:1009A40040F08D80236813F0020F17D013F0040F6A
:1009B40004D0474A536843F4E0635360236813F058
:1009C400080F04D0424A536843F460535360404ACA
:1009D400536823F0F003A1680B435360236813F0BA
:1009E400010F31D06368012B20D0022B25D0384A67
:1009F400126812F0020F64D035494A6822F00302EB
:100A040013434B60FFF75AFD0646314B5B6803F016
:100A14000C036268B3EB820F16D0FFF74FFD801B07
:100A240041F288339842F0D9032045E0284A1268FD
:100A340012F4003FE0D101203EE0254A126812F092
:100A4400007FD9D1012037E0204B1B6803F0070356
:100A5400AB420AD91D4A136823F007032B431360E2
:100A6400136803F00703AB422DD1236813F0040F7E
:100A740006D0174A536823F4E063E1680B435360DC
:100A8400236813F0080F07D0114A536823F4605306
:100A9400216943EAC1035360FFF734FF0C4B5B68E1
:100AA400C3F303130B4AD35CD8400B4B18600B4BB6
:100AB4001868FFF7BFFC002070BD012070470120BB
:100AC400FAE70120F8E70120F6E700BF0020024022
:100AD400001002404C2900080800002004000020F7
:100AE400014B1868704700BF0800002008B5FFF7E5
:100AF400F7FF044B5B68C3F30223034AD35CD8407B
:100B040008BD00BF001002404429000808B5FFF7E3
:100B1400E7FF044B5B68C3F3C223034AD35CD840AA
:100B240008BD00BF001002404429000870B582B01F
:100B34000024A446ACE0854DAB4210D007D9844DC7
:100B4400AB420CD005F58035AB4208D013E0A5F5D7
:100B54008015AB4203D005F57025AB4207D18B68F5
:100B6400002B5FD0012B58D04261082403E0A5F587
:100B74008015AB42F3D0BEF1FF0F55D806464FEABD
:100B84008C0233680F25954023EA050304FA02F228
:100B9400134333604B6813F0805F77D06D4B9A69D1
:100BA40042F001029A619B6903F001030193019BE6
:100BB4004FEA9C02951C684B53F825600CF0030522
:100BC400AD000F23AB4026EA0306644B984232D0B3
:100BD40003F58063984200F0978003F580639842A0
:100BE40000F0948003F58063984200F0918003F54F
:100BF4008063984200F08E8003F58063984218D099
:100C0400062319E0CC68B6E7CC680434B3E7CC68B3
:100C14000834B0E7CC680C34ADE702610824AAE7D5
:100C24000024A8E70424A6E7061DACF108029200FC
:100C3400A7E7052300E00023AB4033430232464DCF
:100C440045F822304B6813F4803F65D0444A13685A
:100C540043EA0E0313604B6813F4003F62D0404A2A
:100C6400536843EA0E0353604B6813F4801F5FD04C
:100C74003B4A936843EA0E0393604B6813F4001FE6
:100C84005CD0374AD36843EA0E03D3600CF1010CFD
:100C94000B6833FA0CF257D0012202FA0CF203EA81
:100CA400020E32EA0303F1D14B68122B3FF643AF35
:100CB400122B3FF660AF01A555F823F0630B000833
:100CC400090C0008130C0008250C00087B0B000815
:100CD4007B0B00087B0B00087B0B00087B0B0008D8
:100CE4007B0B00087B0B00087B0B00087B0B0008C8
:100CF4007B0B00087B0B00087B0B00087B0B0008B8
:100D04000D0C0008190C0008012395E7022393E752
:100D1400032391E704238FE7114A136823EA0E03A0
:100D2400136098E70E4A536823EA0E0353609BE767
:100D34000B4A936823EA0E0393609EE7084AD3683C
:100D440023EA0E03D360A1E702B070BD00002210B5
:100D54000000311000100240000001400008014072
:100D6400000401400AB10161704709040161704740
:100D7400C36801EA030221EA030141EA0241016175
:100D84007047034690F82120022A06D00422826389
:100D9400002280F820200120704701680A6822F0B0
:100DA4000E020A6001680A6822F001020A60026CFD
:100DB400C06B012101FA02F2426083F82110002085
:100DC40083F820007047000008B590F82130022B0A
:100DD40003D004238363012008BD0268136823F051
:100DE4000E0313600268136823F0010313600368A1
:100DF4004B4A93424ED9783A934224D014329342C8
:100E040030D0143293422FD0143293422FD0143264
:100E140093422FD0143293422FD0143293422FD0C6
:100E240002F5627293422ED0143293422DD01432C2
:100E340093422CD01432934202D04FF4803203E018
:100E44004FF4805200E00122364B5A60012380F8AF
:100E54002130002380F82030436B002B5ED098476C
:100E64000020B9E71022EFE74FF48072ECE74FF46B
:100E74008052E9E74FF48032E6E74FF48012E3E76B
:100E84004FF08072E0E70122DEE71022DCE74FF446
:100E94008072D9E7244A934224D01432934225D055
:100EA4001432934224D01432934224D01432934205
:100EB40024D01432934224D01432934224D002F525
:100EC4006272934223D01432934222D0143293425A
:100ED40021D01432934202D04FF4803203E04FF415
:100EE400805200E00122114B5A60AFE71022FAE76A
:100EF4004FF48072F7E74FF48052F4E74FF48032F6
:100F0400F1E74FF48012EEE74FF08072EBE7012235
:100F1400E9E71022E7E74FF48072E4E700205BE79B
:100F24008000024000040240080002400000024029
:100F3400002808DB0901C9B200F1604000F56140F6
:100F440080F80013704700F00F000901C9B2014B8B
:100F54001954704714ED00E000B500F00700C0F12B
:100F6400070CBCF1040F28BF4FF0040C031D062B23
:100F74000FD9C31E4FF0FF3E0EFA0CF021EA000118
:100F840099400EFA03FE22EA0E0241EA02005DF8DD
:100F940004FB0023EEE70000074AD36823F4E06370
:100FA4001B041B0C000200F4E060034343F0BF6326
:100FB40043F40033D360704700ED00E010B50446FD
:100FC400054BD868C0F30220FFF7C6FF0146204650
:100FD400FFF7AEFF10BD00BF00ED00E0002807DB07
:100FE40000F01F02400901239340024A42F82030D6
:100FF400704700BF00E100E00138B0F1807F0BD200
:101004004FF0E0235861054AF02182F823100020B4
:10101400986107221A6170470120704700ED00E0D3
:10102400042806D04FF0E022136923F0040313616F
:1010340070474FF0E022136943F0040313617047D3
:101044007047000008B51348134B03604FF4E133B5
:10105400436000238360C36003610C2242618361A7
:10106400C36100F0ADF990B90C4B1868002302225B
:101074001946806801F028F906480268D36843F0ED
:101084002003D3600122064900F0D9FB08BDFFF715
:10109400EDF8E9E788000020003801400C0000204A
:1010A400CC00002030B587B000230293039304934F
:1010B400059302681B4B9A4201D007B030BD03F57B
:1010C40058439A6942F480429A619A6902F48042D0
:1010D4000092009A9A6942F004029A619B6903F0B3
:1010E40004030193019B4FF40073029302240394BD
:1010F400032305930C4D02A92846FFF717FD4FF46F
:101104008063029300230393049302A92846FFF704
:101114000DFD224621462520FFF750FF2520FFF72D
:101124005DFFCAE7003801400008014038B50D46AC
:101134001446094800F062FB2028FAD14FF6FF73E9
:10114400A2B22946044800F06AF908B9204638BD1D
:101154004FF0FF34FAE700BF88000020074B8342BA
:1011640000D0704710B5064C2178064800F0CEFB3D
:1011740001222146014800F062FB10BD88000020D6
:10118400CC0000205C29000830B44FF0E0235D69F6
:101194009C691969586100229A611A6942F0010236
:1011A4001A614FF0E0231B6903F00113012BF8D0FF
:1011B4004FF0E0231A6922F001021A6100229A61B9
:1011C4005D619C61196130BC7047000008B5002066
:1011D400FFF726FF074B1B68074AA2FB03235B0D9F
:1011E400064A13604FF47A7202FB03F3044A136055
:1011F40008BD00BF0800002083DE1B43F000002070
:10120400EC00002008B5034B1B6803FB00F0FFF75C
:10121400BBFF08BDEC00002038B50546002404E0FF
:101224004FF47A70FFF7EEFF0134AC42F8D338BDC7
:101234000268D36823F49073D3600268536923F07F
:1012440001035361036B012B05D0202380F83E304A
:101254000023036370470268D36823F01003D3604C
:10126400F3E790F83D30DBB2212B01D00220704728
:101274008368B3F5805F17D0036A5A1C02621A7838
:1012840003685A60C38C9BB2013B9BB2C3844BB9C5
:101294000268D36823F08003D3600268D36843F004
:1012A4004003D360002070470369002BE4D1036A34
:1012B4001B880268C3F308035360036A02330362A2
:1012C400E0E7000010B504460268136923F44053B4
:1012D400C1680B43136183680269134342691A436B
:1012E4000168CB6823F4B05323F00C031343CB60A1
:1012F4000268536923F4407381690B4353610268A4
:10130400134B9A4220D0FFF7F1FB024602EB820214
:1013140002EB820263689B00B2FBF3F20D48A0FB70
:1013240002314909642303FB11231B013233A0FB5F
:1013340003035B0903F0F00202EB011203F00F0355
:10134400216813448B6010BDFFF7E0FB0246DDE724
:10135400003801401F85EB512DE9F84305460F463F
:1013640016469946DDF820802B681C6837EA040489
:101374000CBF01240024B4421FD1B8F1FF3FF3D0C5
:10138400B8F1000F05D0FFF799F8A0EB090040452C
:10139400EAD92A68D36823F4D073D3602A685369DE
:1013A40023F001035361202385F83D3085F83E3056
:1013B400002385F83C30032000E00020BDE8F883DA
:1013C40058B310B5044690F83D300BB3242384F889
:1013D4003D302268D36823F40053D3602046FFF7DE
:1013E40071FF2268136923F49043136122685369DF
:1013F40023F02A0353612268D36843F40053D36073
:1014040000202064202384F83D3084F83E3010BD51
:1014140080F83C30FFF746FED8E7012070472DE9FD
:10142400F04182B01E4690F83D30DBB2202B54D1FF
:1014340004460D469046002953D0002A53D090F814
:101444003C30012B51D0012380F83C30002303644D
:10145400212380F83D30FFF731F80746A4F82480B3
:10146400A4F82680A368B3F5805F05D04FF0000888
:10147400002384F83C3012E0236913B14FF00008D4
:10148400F6E7A8460025F3E738F8023B2268C3F3E1
:1014940008035360E28C92B2013A92B2E284E38C84
:1014A4009BB273B100963B46002280212046FFF791
:1014B40053FFE0B9002DE7D015F8012B23685A60DB
:1014C400E8E700963B46002240212046FFF744FF10
:1014D40078B9202384F83D3000E0022002B0BDE852
:1014E400F0810120FAE70120F8E70220F6E7032063
:1014F400F4E70320F2E7704708B50168CA6822F0F0
:101504004002CA60202280F83D20FFF7F4FF00204B
:1015140008BD704708B5406A0023C385C384FFF73C
:10152400F8FF08BD704790F83E30DBB2222B60D143
:101534008368B3F5805F46D0826AB3F5805F04D0D8
:10154400002B4DD10369002B4AD103685B681370EB
:10155400836A01338362C38D9BB2013B9BB2C38513
:10156400002B48D100B583B00268D36823F0200370
:10157400D3600268D36823F48073D360026853692C
:1015840023F001035361202380F83E30036B012BC9
:101594002CD1002303630268D36823F01003D360C3
:1015A40003681A6812F0100F06D0002201921A681C
:1015B40001925B680193019B818DFFF7B3FF0020CB
:1015C40003B05DF804FB0269002AB5D1826A03689E
:1015D4005B68C3F308031380836A02338362BAE748
:1015E40003685B6803F07F031370B1E7FFF7B6FD90
:1015F400E5E70220704700207047000010B582B074
:10160400044602681368D068516913F00F0F09D1BA
:1016140013F0200F0CD010F0200F09D02046FFF754
:1016240082FF16E011F0010115D110F4907F12D160
:10163400216B012971D013F0800F03D010F0800FBB
:1016440040F0D28013F0400F03D010F0400F40F070
:10165400CF8002B010BD13F0010F06D010F4807FCC
:1016640003D0226C42F00102226413F0040F04D070
:1016740019B1226C42F00202226413F0020F04D06A
:1016840019B1226C42F00402226413F0080F07D04F
:1016940010F0200F00D119B1226C42F0080222642C
:1016A400226C002AD5D013F0200F02D010F0200FA6
:1016B40021D123685B6903F04003226C12F0080F08
:1016C40000D123B32046FFF7B3FD23685A6912F013
:1016D400400F18D05A6922F040025A61A36B73B1CB
:1016E400454A5A63A06BFFF76FFB0028B1D0A06B8B
:1016F400436B9847ADE72046FFF715FFD9E720462F
:10170400FFF707FFA5E72046FFF703FFA1E7204601
:10171400FFF7FFFE002323649BE713F0100F8AD02A
:1017240010F0100F87D000230193136801935368BE
:101734000193019B536913F0400F31D0A16B0B68E7
:101744005B689BB2002B84D0A08D984281D9E3853D
:101754008B69202B08D1A18DE38D9BB2C91A89B264
:101764002046FFF7DFFE74E7D36823F48073D36069
:101774002268536923F0010353612268536923F0FB
:1017840040035361202384F83E30002323632268FE
:10179400D36823F01003D360A06BFFF7F2FADAE703
:1017A400A38DE18D89B25B1A99B2E38D9BB2002BB4
:1017B4003FF44FAF00293FF44CAFD36823F4907348
:1017C400D3602268536923F001035361202384F812
:1017D4003E30002323632268D36823F01003D360D0
:1017E4002046FFF79FFE34E72046FFF73AFD30E737
:1017F4002046FFF781FE2CE71915000890F83D30CC
:1018040090F83E0018437047034681628285C28582
:1018140000201864222283F83E2083F83C001968D3
:10182400CA6842F48072CA6019684A6942F00102C7
:101834004A611A68D36843F02003D360704708B53F
:1018440090F83E30DBB2202B0DD171B17AB190F813
:101854003C30012B0DD0012380F83C30002303637E
:10186400FFF7D2FF00E0022008BD0120FCE70120C1
:10187400FAE70220F8E700000C480D490D4A00235E
:1018840002E0D458C4500433C4188C42F9D30A4A31
:101894000A4C002301E013600432A242FBD3FFF799
:1018A400CFFB00F00FF8FEF715FD70470000002095
:1018B400680000209C2900086800002044020020E1
:1018C400FEE7000070B500260C4D0D4C641BA410FF
:1018D400A64209D101F01EF800260A4D0A4C641BE9
:1018E400A410A64205D170BD55F8043B98470136B3
:1018F400EEE755F8043B98470136F2E794290008CF
:101904009429000894290008982900080FB407B501
:10191400064904AB086853F8042B8168019300F06E
:101924002FF803B05DF804EB04B070470C000020FE
:10193400936810B4013B002B936007DA9469A342C7
:1019440001DB0A2902D110BC00F032B91368581C1B
:1019540010601970084610BC7047F8B506460F466B
:101964001446D518AC4201D1002007E03A4630466F
:1019740014F8011BFFF7DCFF431CF3D1F8BD000092
:101984002DE9F04F0D461446984606469DB018B111
:10199400036A0BB900F080FC6B6ED90705D4AB89E0
:1019A4009A0502D4A86D00F008FEAB891B0701D587
:1019B4002B699BB92946304600F038F970B16B6E3B
:1019C400DC0704D54FF0FF301DB0BDE8F08FAB89C4
:1019D4009805F7D4A86D00F0F1FDF3E7002309930F
:1019E40020238DF8293030234FF00109CDF80C80E5
:1019F400DFF8A8818DF82A3023469A4613F8012B84
:101A04000AB1252AF9D1BAEB040B0BD05B46224666
:101A140029463046FFF7A1FF013000F0A780099A5C
:101A24005A4409929AF80030002B00F09F8000235A
:101A34004FF0FF32CDE905230AF1010A049307931D
:101A44008DF853301A935446052214F8011B534859
:101A540000F088FB049AD8B9D10644BF20238DF83E
:101A64005330130744BF2B238DF853309AF80030BA
:101A74002A2B15D0544600204FF00A0C079A214611
:101A840011F8013B303B092B4BD9B0B1079214E05C
:101A9400A0EB080309FA03F31343A2460493D2E725
:101AA400039B191D1B680391002BBBBF5B4242F0D3
:101AB400020207930793B8BF049223782E2B0AD10E
:101AC40063782A2B32D1039B02341A1D1B680392BC
:101AD40043EAE3730593DFF8C8A003225046217854
:101AE40000F040FB38B14022049BA0EB0A00824086
:101AF40013430134049314F8011B062229488DF87A
:101B0400281000F02FFB00283FD0274B1BBB039B62
:101B1400073323F0070308330393099B3B440993DA
:101B24006AE70C4601200CFB0232A8E700234FF0C1
:101B34000A0C194601340593204610F8012B303A5B
:101B4400092A03D9002BC6D00591C4E70446012312
:101B54000CFB0121F0E703AB00932A463046134BFC
:101B640004A9AFF300800746781CD6D16B6ED90761
:101B740005D4AB899A0502D4A86D00F01FFDAB898A
:101B84005B063FF51FAF09981EE703AB00932A4697
:101B94003046064B04A900F011F9E4E76129000876
:101BA400672900086B290008000000005F1900087D
:101BB400F8B50E461446054618B1036A0BB900F091
:101BC4006BFBA369A360A3891A0701D5236943B9F1
:101BD4002146284600F02AF818B14FF0FF3738465E
:101BE400F8BD23682269F6B2981A636937468342BE
:101BF40005DC2146284600F08DFA0028EDD1A368C3
:101C0400013BA36023685A1C22601E706269431C56
:101C14009A4204D0A389DB07E1D50A2EDFD12146FD
:101C2400284600F077FA0028D9D0D6E738B5294BF2
:101C3400054618680C4618B1036A0BB900F02CFB72
:101C4400B4F90C30190722D4DA0607D409222A6021
:101C540043F040034FF0FF30A38133E0580712D51F
:101C6400616B41B104F14403994202D0284600F06B
:101C74005BFC00236363A38923F02403A381002373
:101C8400636023692360A38943F00803A381236964
:101C94004BB9A38903F42073B3F5007F03D0214625
:101CA400284600F0B1FCB4F90C3013F001020AD05C
:101CB4000022A26062695242A261226942B913F011
:101CC4008000C5D138BD990758BF6269A260F4E7A6
:101CD4000020F7E70C0000202DE9F047164698464F
:101CE4008A680B6907469342B8BF1346336091F87C
:101CF40043200C46DDF820900AB101333360236899
:101D0400990642BF336802333360256815F006052F
:101D140006D104F1190AE36832689B1AAB422BDC42
:101D240094F843302268003B18BF0123920630D454
:101D34004146384604F14302C847013023D02368A2
:101D4400226903F00603042B14BF002533684FF007
:101D5400000608BFE56804F11A0408BFED1A54F838
:101D6400123C08BF25EAE5759342C4BF9B1AED18DF
:101D7400B5421AD1002008E00123524641463846B4
:101D8400C847013003D14FF0FF30BDE8F08701357B
:101D9400C1E73020E11881F843005A1C94F845103B
:101DA4002244023382F84310C2E70123224641460B
:101DB4003846C8470130E6D00136D9E72DE9FF4758
:101DC4000F7E9146782F80460C469A460C9E01F170
:101DD400430207D8622F0AD8002F00F0DD80582F65
:101DE40000F0C38004F1420684F842703AE0A7F19F
:101DF4006303152BF6D801A151F823F0591E0008EE
:101E04006D1E0008E91D0008E91D0008E91D000811
:101E1400E91D00086D1E0008E91D0008E91D000801
:101E2400E91D0008E91D0008831F0008FB1E0008C7
:101E34003B1F0008E91D0008E91D0008A51F000854
:101E4400E91D0008FB1E0008E91D0008E91D000843
:101E5400431F000833681A1D1B68326004F14206F0
:101E640084F842300123A8E031682368081D3060FB
:101E74001E0601D50D6803E05D06FBD5B1F90050DF
:101E8400002D616878DA2D20002984F84300A160D0
:101E94002DDA0A235D486D421646B5FBF3F103FBC8
:101EA4001157C75D06F8017D2F46BB420D46F4D994
:101EB400082B0BD12368DF0708D523696168994291
:101EC400DEBF302306F8013C06F1FF36921B226187
:101ED4004B4621464046CDF800A003AAFFF7FCFE7E
:101EE40001306FD14FF0FF3004B0BDE8F08723F02C
:101EF40004032360CDE721683368080653F8045BC4
:101F040002D4490648BFADB26F2F336014BF0A2311
:101F140008233E48002184F843106668002EA6601A
:101F2400BADB216821F004012160002DB4D1002E18
:101F3400B2D11646BCE7236843F020032360782718
:101F4400334884F84570236831681F0651F8045BF0
:101F540002D45F0648BFADB23160D90744BF43F035
:101F6400200323601DB11023D4E72848E9E7236840
:101F740023F020032360F6E70A232448CDE73368DF
:101F84002568181D616930602E061B6801D519602B
:101F940002E06806FBD5198000231646236197E703
:101FA400336800211A1D32601E686268304600F0F2
:101FB400D9F808B1801B606063682361002384F84A
:101FC400433085E73246494640462369D0470130CD
:101FD40088D023689B0714D4E068039B9842B8BF59
:101FE400184681E70123324649464046D04701302E
:101FF4003FF478AF0135E36803995B1AAB42F1DC37
:10200400EAE7002504F11906F5E700BF7229000884
:1020140083290008B1F90C20F8B5170705460C46CA
:1020240056D44B68002B02DC0B6C002B3DDDE66ABA
:10203400002E3AD0002312F480522F68216A2B60BC
:1020440025D0626DA389580705D56368D21A636BDE
:102054000BB1236CD21A216A00232846E66AB047E2
:10206400411C24D00023636023692360A389DA041C
:1020740000D56065616B2F60B9B104F144039942E6
:1020840002D0284600F050FA002363630DE00123D8
:102094002846B047461C0246D4D12B68002BD1D029
:1020A4001D2B01D0162B2AD12F6000202EE02A6888
:1020B400B4F90C3042B11D2A01D0162A21D10023D3
:1020C400636023692360D5E7626022692260CEE7FA
:1020D4000F69002FE9D0930718BF00230E6808BFCB
:1020E4004B69F61B0F608B60002EDEDD33463A46EB
:1020F4002846216AD4F828C0E047002807DCB4F950
:102104000C304FF0FF3043F04003A381F8BD074487
:10211400361AE9E738B50B6905460C4613B90025AC
:10212400284638BD18B1036A0BB900F0B5F8B4F904
:102134000C30002BF3D0626ED00704D4990502D47E
:10214400A06D00F03AFA28462146FFF763FF636E5C
:102154000546DA07E4D4A3899B05E1D4A06D00F019
:102164002DFADDE7034610B5C9B20244934218467E
:1021740001D1002003E0047801338C42F6D110BD74
:10218400002310B50446C0E90033C0E9043383607A
:1021940081814366C2818361194608225C3000F064
:1021A400BBF90D4B246263620C4BA3620C4BE362DC
:1021B4000C4B23630C4B9C4206D003F168029442FF
:1021C40002D0D0339C4205D104F15800BDE8104040
:1021D40000F0F2B910BD00BF3524000857240008F0
:1021E4008F240008B3240008F4000020024A0349A5
:1021F400034800F073B900BF5C00002019210008F7
:102204001000002041680C4B10B59942044601D0DF
:10221400FFF780FFA168094B994202D02046FFF7DF
:1022240079FFE168064B994204D02046BDE810408E
:10223400FFF770BF10BD00BFF40000205C01002058
:10224400C401002010B50B4B0B4C0C4A20461A60FD
:1022540004210022FFF794FF04F168000122092100
:10226400FFF78EFF04F1D0000222BDE810401221D6
:10227400FFF786BF2C020020F4000020F1210008A3
:10228400014800F09AB900BF31020020014800F073
:1022940095B900BF3102002010B50446FFF7F0FFE6
:1022A400236A1BB1BDE81040FFF7F0BF044B236263
:1022B400044B1B68002BF5D1FFF7C4FFF2E700BF06
:1022C400092200082C0200202DE9F7431D46574B34
:1022D40004461F680E46904627B13B6A13B9384638
:1022E400FFF7DAFFB8F1020F06D0B8F1010F00F2E0
:1022F4009A80002DC0F29780636ED90705D4A38914
:102304009A0502D4A06D00F058F921463846FFF72B
:1023140001FF616B41B104F14403994202D0384694
:1023240000F002F9002363630023A3616360A389BF
:102334001B0603D53846216900F0F6F8A389B8F1E5
:10234400020F23F44A6323F00303A38161D001AB9A
:102354006A462146384600F032F9A3891843A08121
:102364002DBB009D284600F09BF90646002852D15B
:10237400DDF80090A94540D14FF0FF35B4F90C3099
:1023840043F00202A2810022A26004F1470222600B
:10239400226101226261626ED60704D4980502D4D8
:1023A400A06D00F00BF9284603B0BDE8F083002EC1
:1023B400D8D03B6A13B93846FFF76EFFB8F1010F66
:1023C40008BFA389C4E9046504BF43F00103A381E2
:1023D400B4F90C30266013F008021ED0D90741BFAF
:1023E40000226D42A260A56158BFA560626ED2074B
:1023F40001D49B0513D50025D5E7484600F050F9D4
:1024040006460028B8D0A3894D4643F08003A38133
:10241400CFE70025B2E7A946F5E7A260E6E7A06D9D
:1024240000F0CCF8E7E74FF0FF35BCE70C000020E4
:1024340010B50C46B1F90E1000F008FA0028ABBF35
:10244400636DA3891B1823F48053ACBF6365A38118
:1024540010BD2DE9F0411F468B890546DB050C466E
:10246400164605D502230022B1F90E1000F0DCF95E
:10247400A389324623F48053A38128463B46B4F90A
:102484000E10BDE8F04100F017B810B50C46B1F9D4
:102494000E1000F0C9F9431CA38915BF606523F42D
:1024A400805343F48053A38118BFA38110BDB1F9B5
:1024B4000E1000F0E5B8000038B504460846114691
:1024C4000022054D2A601A46FEF730FE431C02D155
:1024D4002B6803B1236038BD340200202DE9F84392
:1024E4000746884614460026D4E90195B9F1010946
:1024F40005D52468002CF7D13046BDE8F883AB89B4
:10250400012B07D9B5F90E30013303D029463846DB
:10251400C04706436835E9E703460244934200D1C5
:10252400704703F8011BF9E738B50546002940D088
:1025340051F8043C0C1F002BB8BFE41800F098F9C4
:102544001C4A136833B9636014602846BDE83840F8
:1025540000F094B9A34208D9206821188B4201BF26
:1025640019685B6809182160EDE71A465B680BB1CE
:10257400A342FAD911685018A0420BD12068014433
:10258400501883421160E0D118685B6808441060F9
:102594005360DAE702D90C232B60D6E720682118B0
:1025A4008B4201BF19685B6809182160636054603D
:1025B400CBE738BD3C02002070477047704770B5C8
:1025C4000C46B1F90E10154600291E4696B00CDAD9
:1025D400A389002113F0800F14BF40234FF48063BC
:1025E400002031602B6016B070BD6A4600F0FAF826
:1025F4000028EDDB019901F47041A1F50053594223
:1026040059414FF48063EBE78B89F7B59D07064684
:102614000C4607D504F1470323602361012363615A
:1026240003B0F0BD6A4601ABFFF7C9FF009F054642
:102634003946304600F05EF848B9B4F90C309A05D2
:10264400EED423F0030343F00203A381E2E7A3895A
:10265400C4E9040743F08003A381019B20605BB1BC
:102664003046B4F90E1000F0CFF828B1A38923F056
:10267400030343F00103A381A3891D43A581CFE78D
:1026840038B50023054D044608462B6000F00CF9CC
:10269400431C02D12B6803B1236038BD34020020EF
:1026A400024B0146186800F025B800BF0C0000205A
:1026B40070B50F4E0C463168054611B900F0E4F8C8
:1026C40030602146284600F0DFF8431C03D14FF068
:1026D400FF34204670BDC41C24F00304A042F8D08B
:1026E400211A284600F0D0F80130F2D1EFE700BFFC
:1026F400380200202DE9F041CD1C25F003050835F2
:102704000C2D38BF0C25002D064601DBA94204D947
:102714000C2333600020BDE8F081314F00F0A8F8AD
:102724003B681C4644BB29463046FFF7C1FF431CA7
:10273400044650D13C682146002941D1002C44D0A4
:102744002368304604EB030800F09EF880453CD132
:10275400216830466D1A2946FFF7AAFF013034D0AC
:1027640023682B4423603B68002B36D05A68A2426E
:1027740029D100225A600EE02268521B1DD40B2A74
:1027840016D96119A342256018BF5960636808BF50
:10279400396062514B60304600F070F804F10B0070
:1027A400231D20F00700C21AB5D01B1AA350B2E7AC
:1027B400A3426268DED13A60EDE723466468B1E77C
:1027C4000C464968B8E71346CEE70C23304633601D
:1027D40000F054F89EE70560DDE75B60FFDE00BFB4
:1027E4003C02002038B50023064D04460846114635
:1027F4002B6000F061F8431C02D12B6803B1236005
:1028040038BD00BF3402002038B50023054D04460E
:1028140008462B6000F058F8431C02D12B6803B122
:10282400236038BD3402002038B5044608461146FA
:102834000022054D2A601A4600F04EF8431C02D1CE
:102844002B6803B1236038BD3402002038B5044638
:10285400084611460022054D2A601A4600F044F845
:10286400431C02D12B6803B1236038BD340200201D
:102874000148FFF7A2BE00BF300200200148FFF765
:102884009DBE00BF3002002038B50023054D04462C
:1028940008462B6000F030F8431C02D12B6803B1CA
:1028A400236038BD340200205822024B4FF0FF3021
:1028B4001A607047340200205822024B4FF0FF3058
:1028C4001A607047340200205822024B00201A601C
:1028D400704700BF340200205822024B4FF0FF30F3
:1028E4001A607047340200205822024B4FF0FF3028
:1028F4001A60704734020020044A05491368002B0B
:1029040008BF0B4618441060184670474002002068
:1029140048020020F8B500BFF8BC08BC9E467047CA
:0C292400F8B500BFF8BC08BC9E46704728
:1029300002030405060708090A0B0C0D0E0F101000
:10294000000000000000000001020304000000007D
:1029500000000000010203040607080925640D0AAF
:1029600000232D302B2000686C4C006566674546BF
:1029700047003031323334353637383941424344F9
:102980004546003031323334353637383961626389
:042990006465660014
:042994004D020008E8
:04299800250200080C
:10299C0001000000100000000024F40010000020D2
:1029AC0000000000F40000205C010020C4010020A5
:1029BC00000000000000000000000000000000000B
:1029CC0000000000000000000000000000000000FB
:1029DC0000000000000000000000000000000000EB
:1029EC0000000000000000000000000000000000DB
:0829FC0003000000F4000020BC
:040000050800187D5A
:00000001FF
